{
	"data": {
		"bytecode": {
			"linkReferences": {},
			"object": "608060405234801561000f575f80fd5b506040516140dd3803806140dd83398181016040528101906100319190610281565b806040518060400160405280600681526020017f506978656c7300000000000000000000000000000000000000000000000000008152506040518060400160405280600381526020017f50584c0000000000000000000000000000000000000000000000000000000000815250815f90816100ac91906104e6565b5080600190816100bc91906104e6565b5050505f600b5f6101000a81548160ff0219169083151502179055505f73ffffffffffffffffffffffffffffffffffffffff168173ffffffffffffffffffffffffffffffffffffffff1603610148575f6040517f1e4fbdf700000000000000000000000000000000000000000000000000000000815260040161013f91906105c4565b60405180910390fd5b6101578161015e60201b60201c565b50506105dd565b5f600b60019054906101000a900473ffffffffffffffffffffffffffffffffffffffff16905081600b60016101000a81548173ffffffffffffffffffffffffffffffffffffffff021916908373ffffffffffffffffffffffffffffffffffffffff1602179055508173ffffffffffffffffffffffffffffffffffffffff168173ffffffffffffffffffffffffffffffffffffffff167f8be0079c531659141344cd1fd0a4f28419497f9722a3daafe3b4186f6b6457e060405160405180910390a35050565b5f80fd5b5f73ffffffffffffffffffffffffffffffffffffffff82169050919050565b5f61025082610227565b9050919050565b61026081610246565b811461026a575f80fd5b50565b5f8151905061027b81610257565b92915050565b5f6020828403121561029657610295610223565b5b5f6102a38482850161026d565b91505092915050565b5f81519050919050565b7f4e487b71000000000000000000000000000000000000000000000000000000005f52604160045260245ffd5b7f4e487b71000000000000000000000000000000000000000000000000000000005f52602260045260245ffd5b5f600282049050600182168061032757607f821691505b60208210810361033a576103396102e3565b5b50919050565b5f819050815f5260205f209050919050565b5f6020601f8301049050919050565b5f82821b905092915050565b5f6008830261039c7fffffffffffffffffffffffffffffffffffffffffffffffffffffffffffffffff82610361565b6103a68683610361565b95508019841693508086168417925050509392505050565b5f819050919050565b5f819050919050565b5f6103ea6103e56103e0846103be565b6103c7565b6103be565b9050919050565b5f819050919050565b610403836103d0565b61041761040f826103f1565b84845461036d565b825550505050565b5f90565b61042b61041f565b6104368184846103fa565b505050565b5b818110156104595761044e5f82610423565b60018101905061043c565b5050565b601f82111561049e5761046f81610340565b61047884610352565b81016020851015610487578190505b61049b61049385610352565b83018261043b565b50505b505050565b5f82821c905092915050565b5f6104be5f19846008026104a3565b1980831691505092915050565b5f6104d683836104af565b9150826002028217905092915050565b6104ef826102ac565b67ffffffffffffffff811115610508576105076102b6565b5b6105128254610310565b61051d82828561045d565b5f60209050601f83116001811461054e575f841561053c578287015190505b61054685826104cb565b8655506105ad565b601f19841661055c86610340565b5f5b828110156105835784890151825560018201915060208501945060208101905061055e565b868310156105a0578489015161059c601f8916826104af565b8355505b6001600288020188555050505b505050505050565b6105be81610246565b82525050565b5f6020820190506105d75f8301846105b5565b92915050565b613af3806105ea5f395ff3fe6080604052600436106101f8575f3560e01c80636018184d1161010c57806395d89b411161009f578063bffc44dd1161006e578063bffc44dd146106f4578063c87b56dd1461071c578063e75fa06e14610758578063e985e9c514610774578063f2fde38b146107b0576101f8565b806395d89b411461063e578063a22cb46514610668578063aa3bcccb14610690578063b88d4fde146106cc576101f8565b80638456cb59116100db5780638456cb59146105985780638c373ef4146105ae5780638d859f3e146105ea5780638da5cb5b14610614576101f8565b80636018184d146105005780636352211e1461050a57806370a0823114610546578063715018a614610582576101f8565b80632f745c591161018f57806342842e0e1161015e57806342842e0e1461043457806342966c681461045c5780634f6ccce7146104845780635c975abb146104c05780635fd8c710146104ea576101f8565b80632f745c591461037c57806332cb6b0c146103b857806339bd6fa5146103e25780633f4ba83a1461041e576101f8565b8063095ea7b3116101cb578063095ea7b3146102da57806318160ddd1461030257806319385fb31461032c57806323b872dd14610354576101f8565b806301ffc9a7146101fc5780630671131e1461023857806306fdde0314610274578063081812fc1461029e575b5f80fd5b348015610207575f80fd5b50610222600480360381019061021d9190612d26565b6107d8565b60405161022f9190612d6b565b60405180910390f35b348015610243575f80fd5b5061025e60048036038101906102599190612db7565b6107e9565b60405161026b9190612e21565b60405180910390f35b34801561027f575f80fd5b50610288610819565b6040516102959190612eaa565b60405180910390f35b3480156102a9575f80fd5b506102c460048036038101906102bf9190612db7565b6108a8565b6040516102d19190612e21565b60405180910390f35b3480156102e5575f80fd5b5061030060048036038101906102fb9190612ef4565b6108c3565b005b34801561030d575f80fd5b506103166108d9565b6040516103239190612f41565b60405180910390f35b348015610337575f80fd5b50610352600480360381019061034d9190613086565b6108e5565b005b34801561035f575f80fd5b5061037a600480360381019061037591906130e0565b6109b6565b005b348015610387575f80fd5b506103a2600480360381019061039d9190612ef4565b610ab5565b6040516103af9190612f41565b60405180910390f35b3480156103c3575f80fd5b506103cc610b59565b6040516103d99190612f41565b60405180910390f35b3480156103ed575f80fd5b5061040860048036038101906104039190612db7565b610b60565b6040516104159190612d6b565b60405180910390f35b348015610429575f80fd5b50610432610b7d565b005b34801561043f575f80fd5b5061045a600480360381019061045591906130e0565b610b8f565b005b348015610467575f80fd5b50610482600480360381019061047d9190612db7565b610bae565b005b34801561048f575f80fd5b506104aa60048036038101906104a59190612db7565b610bc4565b6040516104b79190612f41565b60405180910390f35b3480156104cb575f80fd5b506104d4610c36565b6040516104e19190612d6b565b60405180910390f35b3480156104f5575f80fd5b506104fe610c4b565b005b610508610ca5565b005b348015610515575f80fd5b50610530600480360381019061052b9190612db7565b610daf565b60405161053d9190612e21565b60405180910390f35b348015610551575f80fd5b5061056c60048036038101906105679190613130565b610dc0565b6040516105799190612f41565b60405180910390f35b34801561058d575f80fd5b50610596610e76565b005b3480156105a3575f80fd5b506105ac610e89565b005b3480156105b9575f80fd5b506105d460048036038101906105cf9190612db7565b610e9b565b6040516105e19190612f41565b60405180910390f35b3480156105f5575f80fd5b506105fe610eb0565b60405161060b9190612f41565b60405180910390f35b34801561061f575f80fd5b50610628610ebb565b6040516106359190612e21565b60405180910390f35b348015610649575f80fd5b50610652610ee4565b60405161065f9190612eaa565b60405180910390f35b348015610673575f80fd5b5061068e60048036038101906106899190613185565b610f74565b005b34801561069b575f80fd5b506106b660048036038101906106b19190612db7565b610f8a565b6040516106c39190612eaa565b60405180910390f35b3480156106d7575f80fd5b506106f260048036038101906106ed9190613261565b611025565b005b3480156106ff575f80fd5b5061071a600480360381019061071591906132e1565b611042565b005b348015610727575f80fd5b50610742600480360381019061073d9190612db7565b611133565b60405161074f9190612eaa565b60405180910390f35b610772600480360381019061076d9190612db7565b611145565b005b34801561077f575f80fd5b5061079a6004803603810190610795919061331f565b611308565b6040516107a79190612d6b565b60405180910390f35b3480156107bb575f80fd5b506107d660048036038101906107d19190613130565b611396565b005b5f6107e28261141a565b9050919050565b600d602052805f5260405f205f915054906101000a900473ffffffffffffffffffffffffffffffffffffffff1681565b60605f80546108279061338a565b80601f01602080910402602001604051908101604052809291908181526020018280546108539061338a565b801561089e5780601f106108755761010080835404028352916020019161089e565b820191905f5260205f20905b81548152906001019060200180831161088157829003601f168201915b5050505050905090565b5f6108b28261147a565b506108bc82611500565b9050919050565b6108d582826108d0611539565b611540565b5050565b5f600880549050905090565b3373ffffffffffffffffffffffffffffffffffffffff1661090583610daf565b73ffffffffffffffffffffffffffffffffffffffff161461095b576040517f08c379a000000000000000000000000000000000000000000000000000000000815260040161095290613404565b60405180910390fd5b80600e5f8481526020019081526020015f20908161097991906135bf565b50817f51da1c5c5bc0477ed37ea7d398e664d84859393fa2efbfe23bd015383890c852826040516109aa9190612eaa565b60405180910390a25050565b5f73ffffffffffffffffffffffffffffffffffffffff168273ffffffffffffffffffffffffffffffffffffffff1603610a26575f6040517f64a0ae92000000000000000000000000000000000000000000000000000000008152600401610a1d9190612e21565b60405180910390fd5b5f610a398383610a34611539565b611552565b90508373ffffffffffffffffffffffffffffffffffffffff168173ffffffffffffffffffffffffffffffffffffffff1614610aaf578382826040517f64283d7b000000000000000000000000000000000000000000000000000000008152600401610aa69392919061368e565b60405180910390fd5b50505050565b5f610abf83610dc0565b8210610b045782826040517fa57d13dc000000000000000000000000000000000000000000000000000000008152600401610afb9291906136c3565b60405180910390fd5b60065f8473ffffffffffffffffffffffffffffffffffffffff1673ffffffffffffffffffffffffffffffffffffffff1681526020019081526020015f205f8381526020019081526020015f2054905092915050565b620f424081565b600f602052805f5260405f205f915054906101000a900460ff1681565b610b85611567565b610b8d6115ee565b565b610ba983838360405180602001604052805f815250611025565b505050565b610bc05f82610bbb611539565b611552565b5050565b5f610bcd6108d9565b8210610c12575f826040517fa57d13dc000000000000000000000000000000000000000000000000000000008152600401610c099291906136c3565b60405180910390fd5b60088281548110610c2657610c256136ea565b5b905f5260205f2001549050919050565b5f600b5f9054906101000a900460ff16905090565b610c53611567565b5f479050610c5f610ebb565b73ffffffffffffffffffffffffffffffffffffffff166108fc8290811502906040515f60405180830381858888f19350505050158015610ca1573d5f803e3d5ffd5b5050565b662386f26fc10000341015610cef576040517f08c379a0000000000000000000000000000000000000000000000000000000008152600401610ce690613761565b60405180910390fd5b620f4240600c5410610d36576040517f08c379a0000000000000000000000000000000000000000000000000000000008152600401610d2d906137c9565b60405180910390fd5b5f600c549050600c5f815480929190610d4e90613814565b9190505550610d5d338261164f565b33600d5f8381526020019081526020015f205f6101000a81548173ffffffffffffffffffffffffffffffffffffffff021916908373ffffffffffffffffffffffffffffffffffffffff16021790555050565b5f610db98261147a565b9050919050565b5f8073ffffffffffffffffffffffffffffffffffffffff168273ffffffffffffffffffffffffffffffffffffffff1603610e31575f6040517f89c62b64000000000000000000000000000000000000000000000000000000008152600401610e289190612e21565b60405180910390fd5b60035f8373ffffffffffffffffffffffffffffffffffffffff1673ffffffffffffffffffffffffffffffffffffffff1681526020019081526020015f20549050919050565b610e7e611567565b610e875f61166c565b565b610e91611567565b610e99611731565b565b6010602052805f5260405f205f915090505481565b662386f26fc1000081565b5f600b60019054906101000a900473ffffffffffffffffffffffffffffffffffffffff16905090565b606060018054610ef39061338a565b80601f0160208091040260200160405190810160405280929190818152602001828054610f1f9061338a565b8015610f6a5780601f10610f4157610100808354040283529160200191610f6a565b820191905f5260205f20905b815481529060010190602001808311610f4d57829003601f168201915b5050505050905090565b610f86610f7f611539565b8383611793565b5050565b600e602052805f5260405f205f915090508054610fa69061338a565b80601f0160208091040260200160405190810160405280929190818152602001828054610fd29061338a565b801561101d5780601f10610ff45761010080835404028352916020019161101d565b820191905f5260205f20905b81548152906001019060200180831161100057829003601f168201915b505050505081565b6110308484846109b6565b61103c848484846118fc565b50505050565b3373ffffffffffffffffffffffffffffffffffffffff1661106283610daf565b73ffffffffffffffffffffffffffffffffffffffff16146110b8576040517f08c379a00000000000000000000000000000000000000000000000000000000081526004016110af90613404565b60405180910390fd5b6001600f5f8481526020019081526020015f205f6101000a81548160ff0219169083151502179055508060105f8481526020019081526020015f2081905550817f86a024a50495e93bad93b40ad1d02b792942bf3eea3269365cf15a1be2334b86826040516111279190612f41565b60405180910390a25050565b606061113e82611aae565b9050919050565b600f5f8281526020019081526020015f205f9054906101000a900460ff166111a2576040517f08c379a0000000000000000000000000000000000000000000000000000000008152600401611199906138a5565b60405180910390fd5b60105f8281526020019081526020015f20543410156111f6576040517f08c379a00000000000000000000000000000000000000000000000000000000081526004016111ed90613761565b60405180910390fd5b5f61120082610daf565b905061120d813384611bb9565b33600d5f8481526020019081526020015f205f6101000a81548173ffffffffffffffffffffffffffffffffffffffff021916908373ffffffffffffffffffffffffffffffffffffffff1602179055505f600f5f8481526020019081526020015f205f6101000a81548160ff0219169083151502179055508073ffffffffffffffffffffffffffffffffffffffff166108fc3490811502906040515f60405180830381858888f193505050501580156112c7573d5f803e3d5ffd5b50817ff4a307759cef07a695ac4937778983b8fd8317d1c9ed5bc2fa4bceef21d0bd2e8233346040516112fc939291906138c3565b60405180910390a25050565b5f60055f8473ffffffffffffffffffffffffffffffffffffffff1673ffffffffffffffffffffffffffffffffffffffff1681526020019081526020015f205f8373ffffffffffffffffffffffffffffffffffffffff1673ffffffffffffffffffffffffffffffffffffffff1681526020019081526020015f205f9054906101000a900460ff16905092915050565b61139e611567565b5f73ffffffffffffffffffffffffffffffffffffffff168173ffffffffffffffffffffffffffffffffffffffff160361140e575f6040517f1e4fbdf70000000000000000000000000000000000000000000000000000000081526004016114059190612e21565b60405180910390fd5b6114178161166c565b50565b5f634906490660e01b7bffffffffffffffffffffffffffffffffffffffffffffffffffffffff1916827bffffffffffffffffffffffffffffffffffffffffffffffffffffffff19161480611473575061147282611d21565b5b9050919050565b5f8061148583611d9a565b90505f73ffffffffffffffffffffffffffffffffffffffff168173ffffffffffffffffffffffffffffffffffffffff16036114f757826040517f7e2732890000000000000000000000000000000000000000000000000000000081526004016114ee9190612f41565b60405180910390fd5b80915050919050565b5f60045f8381526020019081526020015f205f9054906101000a900473ffffffffffffffffffffffffffffffffffffffff169050919050565b5f33905090565b61154d8383836001611dd3565b505050565b5f61155e848484611f92565b90509392505050565b61156f611539565b73ffffffffffffffffffffffffffffffffffffffff1661158d610ebb565b73ffffffffffffffffffffffffffffffffffffffff16146115ec576115b0611539565b6040517f118cdaa70000000000000000000000000000000000000000000000000000000081526004016115e39190612e21565b60405180910390fd5b565b6115f6611faf565b5f600b5f6101000a81548160ff0219169083151502179055507f5db9ee0a495bf2e6ff9c91a7834c1ba4fdd244a5e8aa4e537bd38aeae4b073aa611638611539565b6040516116459190612e21565b60405180910390a1565b611668828260405180602001604052805f815250611fef565b5050565b5f600b60019054906101000a900473ffffffffffffffffffffffffffffffffffffffff16905081600b60016101000a81548173ffffffffffffffffffffffffffffffffffffffff021916908373ffffffffffffffffffffffffffffffffffffffff1602179055508173ffffffffffffffffffffffffffffffffffffffff168173ffffffffffffffffffffffffffffffffffffffff167f8be0079c531659141344cd1fd0a4f28419497f9722a3daafe3b4186f6b6457e060405160405180910390a35050565b61173961200a565b6001600b5f6101000a81548160ff0219169083151502179055507f62e78cea01bee320cd4e420270b5ea74000d11b0c9f74754ebdbfc544b05a25861177c611539565b6040516117899190612e21565b60405180910390a1565b5f73ffffffffffffffffffffffffffffffffffffffff168273ffffffffffffffffffffffffffffffffffffffff160361180357816040517f5b08ba180000000000000000000000000000000000000000000000000000000081526004016117fa9190612e21565b60405180910390fd5b8060055f8573ffffffffffffffffffffffffffffffffffffffff1673ffffffffffffffffffffffffffffffffffffffff1681526020019081526020015f205f8473ffffffffffffffffffffffffffffffffffffffff1673ffffffffffffffffffffffffffffffffffffffff1681526020019081526020015f205f6101000a81548160ff0219169083151502179055508173ffffffffffffffffffffffffffffffffffffffff168373ffffffffffffffffffffffffffffffffffffffff167f17307eab39ab6107e8899845ad3d59bd9653f200f220920489ca2b5937696c31836040516118ef9190612d6b565b60405180910390a3505050565b5f8373ffffffffffffffffffffffffffffffffffffffff163b1115611aa8578273ffffffffffffffffffffffffffffffffffffffff1663150b7a0261193f611539565b8685856040518563ffffffff1660e01b8152600401611961949392919061394a565b6020604051808303815f875af192505050801561199c57506040513d601f19601f8201168201806040525081019061199991906139a8565b60015b611a1d573d805f81146119ca576040519150601f19603f3d011682016040523d82523d5f602084013e6119cf565b606091505b505f815103611a1557836040517f64a0ae92000000000000000000000000000000000000000000000000000000008152600401611a0c9190612e21565b60405180910390fd5b805181602001fd5b63150b7a0260e01b7bffffffffffffffffffffffffffffffffffffffffffffffffffffffff1916817bffffffffffffffffffffffffffffffffffffffffffffffffffffffff191614611aa657836040517f64a0ae92000000000000000000000000000000000000000000000000000000008152600401611a9d9190612e21565b60405180910390fd5b505b50505050565b6060611ab98261147a565b505f600a5f8481526020019081526020015f208054611ad79061338a565b80601f0160208091040260200160405190810160405280929190818152602001828054611b039061338a565b8015611b4e5780601f10611b2557610100808354040283529160200191611b4e565b820191905f5260205f20905b815481529060010190602001808311611b3157829003601f168201915b505050505090505f611b5e61204b565b90505f815103611b72578192505050611bb4565b5f82511115611ba6578082604051602001611b8e929190613a0d565b60405160208183030381529060405292505050611bb4565b611baf84612088565b925050505b919050565b5f73ffffffffffffffffffffffffffffffffffffffff168273ffffffffffffffffffffffffffffffffffffffff1603611c29575f6040517f64a0ae92000000000000000000000000000000000000000000000000000000008152600401611c209190612e21565b60405180910390fd5b5f611c3583835f611552565b90505f73ffffffffffffffffffffffffffffffffffffffff168173ffffffffffffffffffffffffffffffffffffffff1603611ca757816040517f7e273289000000000000000000000000000000000000000000000000000000008152600401611c9e9190612f41565b60405180910390fd5b8373ffffffffffffffffffffffffffffffffffffffff168173ffffffffffffffffffffffffffffffffffffffff1614611d1b578382826040517f64283d7b000000000000000000000000000000000000000000000000000000008152600401611d129392919061368e565b60405180910390fd5b50505050565b5f7f780e9d63000000000000000000000000000000000000000000000000000000007bffffffffffffffffffffffffffffffffffffffffffffffffffffffff1916827bffffffffffffffffffffffffffffffffffffffffffffffffffffffff19161480611d935750611d92826120ee565b5b9050919050565b5f60025f8381526020019081526020015f205f9054906101000a900473ffffffffffffffffffffffffffffffffffffffff169050919050565b8080611e0b57505f73ffffffffffffffffffffffffffffffffffffffff168273ffffffffffffffffffffffffffffffffffffffff1614155b15611f3d575f611e1a8461147a565b90505f73ffffffffffffffffffffffffffffffffffffffff168373ffffffffffffffffffffffffffffffffffffffff1614158015611e8457508273ffffffffffffffffffffffffffffffffffffffff168173ffffffffffffffffffffffffffffffffffffffff1614155b8015611e975750611e958184611308565b155b15611ed957826040517fa9fbf51f000000000000000000000000000000000000000000000000000000008152600401611ed09190612e21565b60405180910390fd5b8115611f3b57838573ffffffffffffffffffffffffffffffffffffffff168273ffffffffffffffffffffffffffffffffffffffff167f8c5be1e5ebec7d5bd14f71427d1e84f3dd0314c0f7b2291e5b200ac8c7c3b92560405160405180910390a45b505b8360045f8581526020019081526020015f205f6101000a81548173ffffffffffffffffffffffffffffffffffffffff021916908373ffffffffffffffffffffffffffffffffffffffff16021790555050505050565b5f611f9b61200a565b611fa68484846121cf565b90509392505050565b611fb7610c36565b611fed576040517f8dfc202b00000000000000000000000000000000000000000000000000000000815260040160405180910390fd5b565b611ff983836122e9565b6120055f8484846118fc565b505050565b612012610c36565b15612049576040517fd93c066500000000000000000000000000000000000000000000000000000000815260040160405180910390fd5b565b60606040518060400160405280601681526020017f68747470733a2f2f636c617965642e6f6e6c696e652f00000000000000000000815250905090565b60606120938261147a565b505f61209d61204b565b90505f8151116120bb5760405180602001604052805f8152506120e6565b806120c5846123dc565b6040516020016120d6929190613a0d565b6040516020818303038152906040525b915050919050565b5f7f80ac58cd000000000000000000000000000000000000000000000000000000007bffffffffffffffffffffffffffffffffffffffffffffffffffffffff1916827bffffffffffffffffffffffffffffffffffffffffffffffffffffffff191614806121b857507f5b5e139f000000000000000000000000000000000000000000000000000000007bffffffffffffffffffffffffffffffffffffffffffffffffffffffff1916827bffffffffffffffffffffffffffffffffffffffffffffffffffffffff1916145b806121c857506121c7826124a6565b5b9050919050565b5f806121dc85858561250f565b90505f73ffffffffffffffffffffffffffffffffffffffff168173ffffffffffffffffffffffffffffffffffffffff160361221f5761221a8461271a565b61225e565b8473ffffffffffffffffffffffffffffffffffffffff168173ffffffffffffffffffffffffffffffffffffffff161461225d5761225c818561275e565b5b5b5f73ffffffffffffffffffffffffffffffffffffffff168573ffffffffffffffffffffffffffffffffffffffff160361229f5761229a846128a8565b6122de565b8473ffffffffffffffffffffffffffffffffffffffff168173ffffffffffffffffffffffffffffffffffffffff16146122dd576122dc8585612968565b5b5b809150509392505050565b5f73ffffffffffffffffffffffffffffffffffffffff168273ffffffffffffffffffffffffffffffffffffffff1603612359575f6040517f64a0ae920000000000000000000000000000000000000000000000000000000081526004016123509190612e21565b60405180910390fd5b5f61236583835f611552565b90505f73ffffffffffffffffffffffffffffffffffffffff168173ffffffffffffffffffffffffffffffffffffffff16146123d7575f6040517f73c6ac6e0000000000000000000000000000000000000000000000000000000081526004016123ce9190612e21565b60405180910390fd5b505050565b60605f60016123ea846129ec565b0190505f8167ffffffffffffffff81111561240857612407612f62565b5b6040519080825280601f01601f19166020018201604052801561243a5781602001600182028036833780820191505090505b5090505f82602001820190505b60011561249b578080600190039150507f3031323334353637383961626364656600000000000000000000000000000000600a86061a8153600a85816124905761248f613a30565b5b0494505f8503612447575b819350505050919050565b5f7f01ffc9a7000000000000000000000000000000000000000000000000000000007bffffffffffffffffffffffffffffffffffffffffffffffffffffffff1916827bffffffffffffffffffffffffffffffffffffffffffffffffffffffff1916149050919050565b5f8061251a84611d9a565b90505f73ffffffffffffffffffffffffffffffffffffffff168373ffffffffffffffffffffffffffffffffffffffff161461255b5761255a818486612b3d565b5b5f73ffffffffffffffffffffffffffffffffffffffff168173ffffffffffffffffffffffffffffffffffffffff16146125e65761259a5f855f80611dd3565b600160035f8373ffffffffffffffffffffffffffffffffffffffff1673ffffffffffffffffffffffffffffffffffffffff1681526020019081526020015f205f82825403925050819055505b5f73ffffffffffffffffffffffffffffffffffffffff168573ffffffffffffffffffffffffffffffffffffffff161461266557600160035f8773ffffffffffffffffffffffffffffffffffffffff1673ffffffffffffffffffffffffffffffffffffffff1681526020019081526020015f205f82825401925050819055505b8460025f8681526020019081526020015f205f6101000a81548173ffffffffffffffffffffffffffffffffffffffff021916908373ffffffffffffffffffffffffffffffffffffffff160217905550838573ffffffffffffffffffffffffffffffffffffffff168273ffffffffffffffffffffffffffffffffffffffff167fddf252ad1be2c89b69c2b068fc378daa952ba7f163c4a11628f55a4df523b3ef60405160405180910390a4809150509392505050565b60088054905060095f8381526020019081526020015f2081905550600881908060018154018082558091505060019003905f5260205f20015f909190919091505550565b5f61276883610dc0565b90505f60075f8481526020019081526020015f2054905081811461283f575f60065f8673ffffffffffffffffffffffffffffffffffffffff1673ffffffffffffffffffffffffffffffffffffffff1681526020019081526020015f205f8481526020019081526020015f205490508060065f8773ffffffffffffffffffffffffffffffffffffffff1673ffffffffffffffffffffffffffffffffffffffff1681526020019081526020015f205f8481526020019081526020015f20819055508160075f8381526020019081526020015f2081905550505b60075f8481526020019081526020015f205f905560065f8573ffffffffffffffffffffffffffffffffffffffff1673ffffffffffffffffffffffffffffffffffffffff1681526020019081526020015f205f8381526020019081526020015f205f905550505050565b5f60016008805490506128bb9190613a5d565b90505f60095f8481526020019081526020015f205490505f600883815481106128e7576128e66136ea565b5b905f5260205f20015490508060088381548110612907576129066136ea565b5b905f5260205f2001819055508160095f8381526020019081526020015f208190555060095f8581526020019081526020015f205f9055600880548061294f5761294e613a90565b5b600190038181905f5260205f20015f9055905550505050565b5f600161297484610dc0565b61297e9190613a5d565b90508160065f8573ffffffffffffffffffffffffffffffffffffffff1673ffffffffffffffffffffffffffffffffffffffff1681526020019081526020015f205f8381526020019081526020015f20819055508060075f8481526020019081526020015f2081905550505050565b5f805f90507a184f03e93ff9f4daa797ed6e38ed64bf6a1f0100000000000000008310612a48577a184f03e93ff9f4daa797ed6e38ed64bf6a1f0100000000000000008381612a3e57612a3d613a30565b5b0492506040810190505b6d04ee2d6d415b85acef81000000008310612a85576d04ee2d6d415b85acef81000000008381612a7b57612a7a613a30565b5b0492506020810190505b662386f26fc100008310612ab457662386f26fc100008381612aaa57612aa9613a30565b5b0492506010810190505b6305f5e1008310612add576305f5e1008381612ad357612ad2613a30565b5b0492506008810190505b6127108310612b02576127108381612af857612af7613a30565b5b0492506004810190505b60648310612b255760648381612b1b57612b1a613a30565b5b0492506002810190505b600a8310612b34576001810190505b80915050919050565b612b48838383612c00565b612bfb575f73ffffffffffffffffffffffffffffffffffffffff168373ffffffffffffffffffffffffffffffffffffffff1603612bbc57806040517f7e273289000000000000000000000000000000000000000000000000000000008152600401612bb39190612f41565b60405180910390fd5b81816040517f177e802f000000000000000000000000000000000000000000000000000000008152600401612bf29291906136c3565b60405180910390fd5b505050565b5f8073ffffffffffffffffffffffffffffffffffffffff168373ffffffffffffffffffffffffffffffffffffffff1614158015612cb757508273ffffffffffffffffffffffffffffffffffffffff168473ffffffffffffffffffffffffffffffffffffffff161480612c785750612c778484611308565b5b80612cb657508273ffffffffffffffffffffffffffffffffffffffff16612c9e83611500565b73ffffffffffffffffffffffffffffffffffffffff16145b5b90509392505050565b5f604051905090565b5f80fd5b5f80fd5b5f7fffffffff0000000000000000000000000000000000000000000000000000000082169050919050565b612d0581612cd1565b8114612d0f575f80fd5b50565b5f81359050612d2081612cfc565b92915050565b5f60208284031215612d3b57612d3a612cc9565b5b5f612d4884828501612d12565b91505092915050565b5f8115159050919050565b612d6581612d51565b82525050565b5f602082019050612d7e5f830184612d5c565b92915050565b5f819050919050565b612d9681612d84565b8114612da0575f80fd5b50565b5f81359050612db181612d8d565b92915050565b5f60208284031215612dcc57612dcb612cc9565b5b5f612dd984828501612da3565b91505092915050565b5f73ffffffffffffffffffffffffffffffffffffffff82169050919050565b5f612e0b82612de2565b9050919050565b612e1b81612e01565b82525050565b5f602082019050612e345f830184612e12565b92915050565b5f81519050919050565b5f82825260208201905092915050565b8281835e5f83830152505050565b5f601f19601f8301169050919050565b5f612e7c82612e3a565b612e868185612e44565b9350612e96818560208601612e54565b612e9f81612e62565b840191505092915050565b5f6020820190508181035f830152612ec28184612e72565b905092915050565b612ed381612e01565b8114612edd575f80fd5b50565b5f81359050612eee81612eca565b92915050565b5f8060408385031215612f0a57612f09612cc9565b5b5f612f1785828601612ee0565b9250506020612f2885828601612da3565b9150509250929050565b612f3b81612d84565b82525050565b5f602082019050612f545f830184612f32565b92915050565b5f80fd5b5f80fd5b7f4e487b71000000000000000000000000000000000000000000000000000000005f52604160045260245ffd5b612f9882612e62565b810181811067ffffffffffffffff82111715612fb757612fb6612f62565b5b80604052505050565b5f612fc9612cc0565b9050612fd58282612f8f565b919050565b5f67ffffffffffffffff821115612ff457612ff3612f62565b5b612ffd82612e62565b9050602081019050919050565b828183375f83830152505050565b5f61302a61302584612fda565b612fc0565b90508281526020810184848401111561304657613045612f5e565b5b61305184828561300a565b509392505050565b5f82601f83011261306d5761306c612f5a565b5b813561307d848260208601613018565b91505092915050565b5f806040838503121561309c5761309b612cc9565b5b5f6130a985828601612da3565b925050602083013567ffffffffffffffff8111156130ca576130c9612ccd565b5b6130d685828601613059565b9150509250929050565b5f805f606084860312156130f7576130f6612cc9565b5b5f61310486828701612ee0565b935050602061311586828701612ee0565b925050604061312686828701612da3565b9150509250925092565b5f6020828403121561314557613144612cc9565b5b5f61315284828501612ee0565b91505092915050565b61316481612d51565b811461316e575f80fd5b50565b5f8135905061317f8161315b565b92915050565b5f806040838503121561319b5761319a612cc9565b5b5f6131a885828601612ee0565b92505060206131b985828601613171565b9150509250929050565b5f67ffffffffffffffff8211156131dd576131dc612f62565b5b6131e682612e62565b9050602081019050919050565b5f613205613200846131c3565b612fc0565b90508281526020810184848401111561322157613220612f5e565b5b61322c84828561300a565b509392505050565b5f82601f83011261324857613247612f5a565b5b81356132588482602086016131f3565b91505092915050565b5f805f806080858703121561327957613278612cc9565b5b5f61328687828801612ee0565b945050602061329787828801612ee0565b93505060406132a887828801612da3565b925050606085013567ffffffffffffffff8111156132c9576132c8612ccd565b5b6132d587828801613234565b91505092959194509250565b5f80604083850312156132f7576132f6612cc9565b5b5f61330485828601612da3565b925050602061331585828601612da3565b9150509250929050565b5f806040838503121561333557613334612cc9565b5b5f61334285828601612ee0565b925050602061335385828601612ee0565b9150509250929050565b7f4e487b71000000000000000000000000000000000000000000000000000000005f52602260045260245ffd5b5f60028204905060018216806133a157607f821691505b6020821081036133b4576133b361335d565b5b50919050565b7f4e6f7420746865206f776e6572000000000000000000000000000000000000005f82015250565b5f6133ee600d83612e44565b91506133f9826133ba565b602082019050919050565b5f6020820190508181035f83015261341b816133e2565b9050919050565b5f819050815f5260205f209050919050565b5f6020601f8301049050919050565b5f82821b905092915050565b5f6008830261347e7fffffffffffffffffffffffffffffffffffffffffffffffffffffffffffffffff82613443565b6134888683613443565b95508019841693508086168417925050509392505050565b5f819050919050565b5f6134c36134be6134b984612d84565b6134a0565b612d84565b9050919050565b5f819050919050565b6134dc836134a9565b6134f06134e8826134ca565b84845461344f565b825550505050565b5f90565b6135046134f8565b61350f8184846134d3565b505050565b5b81811015613532576135275f826134fc565b600181019050613515565b5050565b601f8211156135775761354881613422565b61355184613434565b81016020851015613560578190505b61357461356c85613434565b830182613514565b50505b505050565b5f82821c905092915050565b5f6135975f198460080261357c565b1980831691505092915050565b5f6135af8383613588565b9150826002028217905092915050565b6135c882612e3a565b67ffffffffffffffff8111156135e1576135e0612f62565b5b6135eb825461338a565b6135f6828285613536565b5f60209050601f831160018114613627575f8415613615578287015190505b61361f85826135a4565b865550613686565b601f19841661363586613422565b5f5b8281101561365c57848901518255600182019150602085019450602081019050613637565b868310156136795784890151613675601f891682613588565b8355505b6001600288020188555050505b505050505050565b5f6060820190506136a15f830186612e12565b6136ae6020830185612f32565b6136bb6040830184612e12565b949350505050565b5f6040820190506136d65f830185612e12565b6136e36020830184612f32565b9392505050565b7f4e487b71000000000000000000000000000000000000000000000000000000005f52603260045260245ffd5b7f496e73756666696369656e74207061796d656e740000000000000000000000005f82015250565b5f61374b601483612e44565b915061375682613717565b602082019050919050565b5f6020820190508181035f8301526137788161373f565b9050919050565b7f4d617820737570706c79207265616368656400000000000000000000000000005f82015250565b5f6137b3601283612e44565b91506137be8261377f565b602082019050919050565b5f6020820190508181035f8301526137e0816137a7565b9050919050565b7f4e487b71000000000000000000000000000000000000000000000000000000005f52601160045260245ffd5b5f61381e82612d84565b91507fffffffffffffffffffffffffffffffffffffffffffffffffffffffffffffffff82036138505761384f6137e7565b5b600182019050919050565b7f506978656c206e6f7420666f722073616c6500000000000000000000000000005f82015250565b5f61388f601283612e44565b915061389a8261385b565b602082019050919050565b5f6020820190508181035f8301526138bc81613883565b9050919050565b5f6060820190506138d65f830186612e12565b6138e36020830185612e12565b6138f06040830184612f32565b949350505050565b5f81519050919050565b5f82825260208201905092915050565b5f61391c826138f8565b6139268185613902565b9350613936818560208601612e54565b61393f81612e62565b840191505092915050565b5f60808201905061395d5f830187612e12565b61396a6020830186612e12565b6139776040830185612f32565b81810360608301526139898184613912565b905095945050505050565b5f815190506139a281612cfc565b92915050565b5f602082840312156139bd576139bc612cc9565b5b5f6139ca84828501613994565b91505092915050565b5f81905092915050565b5f6139e782612e3a565b6139f181856139d3565b9350613a01818560208601612e54565b80840191505092915050565b5f613a1882856139dd565b9150613a2482846139dd565b91508190509392505050565b7f4e487b71000000000000000000000000000000000000000000000000000000005f52601260045260245ffd5b5f613a6782612d84565b9150613a7283612d84565b9250828203905081811115613a8a57613a896137e7565b5b92915050565b7f4e487b71000000000000000000000000000000000000000000000000000000005f52603160045260245ffdfea2646970667358221220be071e44f0837462ba1dc1e5e88f8907977d84b1a7512c201915cec9c5c1a16c64736f6c634300081a0033",
			"opcodes": "PUSH1 0x80 PUSH1 0x40 MSTORE CALLVALUE DUP1 ISZERO PUSH2 0xF JUMPI PUSH0 DUP1 REVERT JUMPDEST POP PUSH1 0x40 MLOAD PUSH2 0x40DD CODESIZE SUB DUP1 PUSH2 0x40DD DUP4 CODECOPY DUP2 DUP2 ADD PUSH1 0x40 MSTORE DUP2 ADD SWAP1 PUSH2 0x31 SWAP2 SWAP1 PUSH2 0x281 JUMP JUMPDEST DUP1 PUSH1 0x40 MLOAD DUP1 PUSH1 0x40 ADD PUSH1 0x40 MSTORE DUP1 PUSH1 0x6 DUP2 MSTORE PUSH1 0x20 ADD PUSH32 0x506978656C730000000000000000000000000000000000000000000000000000 DUP2 MSTORE POP PUSH1 0x40 MLOAD DUP1 PUSH1 0x40 ADD PUSH1 0x40 MSTORE DUP1 PUSH1 0x3 DUP2 MSTORE PUSH1 0x20 ADD PUSH32 0x50584C0000000000000000000000000000000000000000000000000000000000 DUP2 MSTORE POP DUP2 PUSH0 SWAP1 DUP2 PUSH2 0xAC SWAP2 SWAP1 PUSH2 0x4E6 JUMP JUMPDEST POP DUP1 PUSH1 0x1 SWAP1 DUP2 PUSH2 0xBC SWAP2 SWAP1 PUSH2 0x4E6 JUMP JUMPDEST POP POP POP PUSH0 PUSH1 0xB PUSH0 PUSH2 0x100 EXP DUP2 SLOAD DUP2 PUSH1 0xFF MUL NOT AND SWAP1 DUP4 ISZERO ISZERO MUL OR SWAP1 SSTORE POP PUSH0 PUSH20 0xFFFFFFFFFFFFFFFFFFFFFFFFFFFFFFFFFFFFFFFF AND DUP2 PUSH20 0xFFFFFFFFFFFFFFFFFFFFFFFFFFFFFFFFFFFFFFFF AND SUB PUSH2 0x148 JUMPI PUSH0 PUSH1 0x40 MLOAD PUSH32 0x1E4FBDF700000000000000000000000000000000000000000000000000000000 DUP2 MSTORE PUSH1 0x4 ADD PUSH2 0x13F SWAP2 SWAP1 PUSH2 0x5C4 JUMP JUMPDEST PUSH1 0x40 MLOAD DUP1 SWAP2 SUB SWAP1 REVERT JUMPDEST PUSH2 0x157 DUP2 PUSH2 0x15E PUSH1 0x20 SHL PUSH1 0x20 SHR JUMP JUMPDEST POP POP PUSH2 0x5DD JUMP JUMPDEST PUSH0 PUSH1 0xB PUSH1 0x1 SWAP1 SLOAD SWAP1 PUSH2 0x100 EXP SWAP1 DIV PUSH20 0xFFFFFFFFFFFFFFFFFFFFFFFFFFFFFFFFFFFFFFFF AND SWAP1 POP DUP2 PUSH1 0xB PUSH1 0x1 PUSH2 0x100 EXP DUP2 SLOAD DUP2 PUSH20 0xFFFFFFFFFFFFFFFFFFFFFFFFFFFFFFFFFFFFFFFF MUL NOT AND SWAP1 DUP4 PUSH20 0xFFFFFFFFFFFFFFFFFFFFFFFFFFFFFFFFFFFFFFFF AND MUL OR SWAP1 SSTORE POP DUP2 PUSH20 0xFFFFFFFFFFFFFFFFFFFFFFFFFFFFFFFFFFFFFFFF AND DUP2 PUSH20 0xFFFFFFFFFFFFFFFFFFFFFFFFFFFFFFFFFFFFFFFF AND PUSH32 0x8BE0079C531659141344CD1FD0A4F28419497F9722A3DAAFE3B4186F6B6457E0 PUSH1 0x40 MLOAD PUSH1 0x40 MLOAD DUP1 SWAP2 SUB SWAP1 LOG3 POP POP JUMP JUMPDEST PUSH0 DUP1 REVERT JUMPDEST PUSH0 PUSH20 0xFFFFFFFFFFFFFFFFFFFFFFFFFFFFFFFFFFFFFFFF DUP3 AND SWAP1 POP SWAP2 SWAP1 POP JUMP JUMPDEST PUSH0 PUSH2 0x250 DUP3 PUSH2 0x227 JUMP JUMPDEST SWAP1 POP SWAP2 SWAP1 POP JUMP JUMPDEST PUSH2 0x260 DUP2 PUSH2 0x246 JUMP JUMPDEST DUP2 EQ PUSH2 0x26A JUMPI PUSH0 DUP1 REVERT JUMPDEST POP JUMP JUMPDEST PUSH0 DUP2 MLOAD SWAP1 POP PUSH2 0x27B DUP2 PUSH2 0x257 JUMP JUMPDEST SWAP3 SWAP2 POP POP JUMP JUMPDEST PUSH0 PUSH1 0x20 DUP3 DUP5 SUB SLT ISZERO PUSH2 0x296 JUMPI PUSH2 0x295 PUSH2 0x223 JUMP JUMPDEST JUMPDEST PUSH0 PUSH2 0x2A3 DUP5 DUP3 DUP6 ADD PUSH2 0x26D JUMP JUMPDEST SWAP2 POP POP SWAP3 SWAP2 POP POP JUMP JUMPDEST PUSH0 DUP2 MLOAD SWAP1 POP SWAP2 SWAP1 POP JUMP JUMPDEST PUSH32 0x4E487B7100000000000000000000000000000000000000000000000000000000 PUSH0 MSTORE PUSH1 0x41 PUSH1 0x4 MSTORE PUSH1 0x24 PUSH0 REVERT JUMPDEST PUSH32 0x4E487B7100000000000000000000000000000000000000000000000000000000 PUSH0 MSTORE PUSH1 0x22 PUSH1 0x4 MSTORE PUSH1 0x24 PUSH0 REVERT JUMPDEST PUSH0 PUSH1 0x2 DUP3 DIV SWAP1 POP PUSH1 0x1 DUP3 AND DUP1 PUSH2 0x327 JUMPI PUSH1 0x7F DUP3 AND SWAP2 POP JUMPDEST PUSH1 0x20 DUP3 LT DUP2 SUB PUSH2 0x33A JUMPI PUSH2 0x339 PUSH2 0x2E3 JUMP JUMPDEST JUMPDEST POP SWAP2 SWAP1 POP JUMP JUMPDEST PUSH0 DUP2 SWAP1 POP DUP2 PUSH0 MSTORE PUSH1 0x20 PUSH0 KECCAK256 SWAP1 POP SWAP2 SWAP1 POP JUMP JUMPDEST PUSH0 PUSH1 0x20 PUSH1 0x1F DUP4 ADD DIV SWAP1 POP SWAP2 SWAP1 POP JUMP JUMPDEST PUSH0 DUP3 DUP3 SHL SWAP1 POP SWAP3 SWAP2 POP POP JUMP JUMPDEST PUSH0 PUSH1 0x8 DUP4 MUL PUSH2 0x39C PUSH32 0xFFFFFFFFFFFFFFFFFFFFFFFFFFFFFFFFFFFFFFFFFFFFFFFFFFFFFFFFFFFFFFFF DUP3 PUSH2 0x361 JUMP JUMPDEST PUSH2 0x3A6 DUP7 DUP4 PUSH2 0x361 JUMP JUMPDEST SWAP6 POP DUP1 NOT DUP5 AND SWAP4 POP DUP1 DUP7 AND DUP5 OR SWAP3 POP POP POP SWAP4 SWAP3 POP POP POP JUMP JUMPDEST PUSH0 DUP2 SWAP1 POP SWAP2 SWAP1 POP JUMP JUMPDEST PUSH0 DUP2 SWAP1 POP SWAP2 SWAP1 POP JUMP JUMPDEST PUSH0 PUSH2 0x3EA PUSH2 0x3E5 PUSH2 0x3E0 DUP5 PUSH2 0x3BE JUMP JUMPDEST PUSH2 0x3C7 JUMP JUMPDEST PUSH2 0x3BE JUMP JUMPDEST SWAP1 POP SWAP2 SWAP1 POP JUMP JUMPDEST PUSH0 DUP2 SWAP1 POP SWAP2 SWAP1 POP JUMP JUMPDEST PUSH2 0x403 DUP4 PUSH2 0x3D0 JUMP JUMPDEST PUSH2 0x417 PUSH2 0x40F DUP3 PUSH2 0x3F1 JUMP JUMPDEST DUP5 DUP5 SLOAD PUSH2 0x36D JUMP JUMPDEST DUP3 SSTORE POP POP POP POP JUMP JUMPDEST PUSH0 SWAP1 JUMP JUMPDEST PUSH2 0x42B PUSH2 0x41F JUMP JUMPDEST PUSH2 0x436 DUP2 DUP5 DUP5 PUSH2 0x3FA JUMP JUMPDEST POP POP POP JUMP JUMPDEST JUMPDEST DUP2 DUP2 LT ISZERO PUSH2 0x459 JUMPI PUSH2 0x44E PUSH0 DUP3 PUSH2 0x423 JUMP JUMPDEST PUSH1 0x1 DUP2 ADD SWAP1 POP PUSH2 0x43C JUMP JUMPDEST POP POP JUMP JUMPDEST PUSH1 0x1F DUP3 GT ISZERO PUSH2 0x49E JUMPI PUSH2 0x46F DUP2 PUSH2 0x340 JUMP JUMPDEST PUSH2 0x478 DUP5 PUSH2 0x352 JUMP JUMPDEST DUP2 ADD PUSH1 0x20 DUP6 LT ISZERO PUSH2 0x487 JUMPI DUP2 SWAP1 POP JUMPDEST PUSH2 0x49B PUSH2 0x493 DUP6 PUSH2 0x352 JUMP JUMPDEST DUP4 ADD DUP3 PUSH2 0x43B JUMP JUMPDEST POP POP JUMPDEST POP POP POP JUMP JUMPDEST PUSH0 DUP3 DUP3 SHR SWAP1 POP SWAP3 SWAP2 POP POP JUMP JUMPDEST PUSH0 PUSH2 0x4BE PUSH0 NOT DUP5 PUSH1 0x8 MUL PUSH2 0x4A3 JUMP JUMPDEST NOT DUP1 DUP4 AND SWAP2 POP POP SWAP3 SWAP2 POP POP JUMP JUMPDEST PUSH0 PUSH2 0x4D6 DUP4 DUP4 PUSH2 0x4AF JUMP JUMPDEST SWAP2 POP DUP3 PUSH1 0x2 MUL DUP3 OR SWAP1 POP SWAP3 SWAP2 POP POP JUMP JUMPDEST PUSH2 0x4EF DUP3 PUSH2 0x2AC JUMP JUMPDEST PUSH8 0xFFFFFFFFFFFFFFFF DUP2 GT ISZERO PUSH2 0x508 JUMPI PUSH2 0x507 PUSH2 0x2B6 JUMP JUMPDEST JUMPDEST PUSH2 0x512 DUP3 SLOAD PUSH2 0x310 JUMP JUMPDEST PUSH2 0x51D DUP3 DUP3 DUP6 PUSH2 0x45D JUMP JUMPDEST PUSH0 PUSH1 0x20 SWAP1 POP PUSH1 0x1F DUP4 GT PUSH1 0x1 DUP2 EQ PUSH2 0x54E JUMPI PUSH0 DUP5 ISZERO PUSH2 0x53C JUMPI DUP3 DUP8 ADD MLOAD SWAP1 POP JUMPDEST PUSH2 0x546 DUP6 DUP3 PUSH2 0x4CB JUMP JUMPDEST DUP7 SSTORE POP PUSH2 0x5AD JUMP JUMPDEST PUSH1 0x1F NOT DUP5 AND PUSH2 0x55C DUP7 PUSH2 0x340 JUMP JUMPDEST PUSH0 JUMPDEST DUP3 DUP2 LT ISZERO PUSH2 0x583 JUMPI DUP5 DUP10 ADD MLOAD DUP3 SSTORE PUSH1 0x1 DUP3 ADD SWAP2 POP PUSH1 0x20 DUP6 ADD SWAP5 POP PUSH1 0x20 DUP2 ADD SWAP1 POP PUSH2 0x55E JUMP JUMPDEST DUP7 DUP4 LT ISZERO PUSH2 0x5A0 JUMPI DUP5 DUP10 ADD MLOAD PUSH2 0x59C PUSH1 0x1F DUP10 AND DUP3 PUSH2 0x4AF JUMP JUMPDEST DUP4 SSTORE POP JUMPDEST PUSH1 0x1 PUSH1 0x2 DUP9 MUL ADD DUP9 SSTORE POP POP POP JUMPDEST POP POP POP POP POP POP JUMP JUMPDEST PUSH2 0x5BE DUP2 PUSH2 0x246 JUMP JUMPDEST DUP3 MSTORE POP POP JUMP JUMPDEST PUSH0 PUSH1 0x20 DUP3 ADD SWAP1 POP PUSH2 0x5D7 PUSH0 DUP4 ADD DUP5 PUSH2 0x5B5 JUMP JUMPDEST SWAP3 SWAP2 POP POP JUMP JUMPDEST PUSH2 0x3AF3 DUP1 PUSH2 0x5EA PUSH0 CODECOPY PUSH0 RETURN INVALID PUSH1 0x80 PUSH1 0x40 MSTORE PUSH1 0x4 CALLDATASIZE LT PUSH2 0x1F8 JUMPI PUSH0 CALLDATALOAD PUSH1 0xE0 SHR DUP1 PUSH4 0x6018184D GT PUSH2 0x10C JUMPI DUP1 PUSH4 0x95D89B41 GT PUSH2 0x9F JUMPI DUP1 PUSH4 0xBFFC44DD GT PUSH2 0x6E JUMPI DUP1 PUSH4 0xBFFC44DD EQ PUSH2 0x6F4 JUMPI DUP1 PUSH4 0xC87B56DD EQ PUSH2 0x71C JUMPI DUP1 PUSH4 0xE75FA06E EQ PUSH2 0x758 JUMPI DUP1 PUSH4 0xE985E9C5 EQ PUSH2 0x774 JUMPI DUP1 PUSH4 0xF2FDE38B EQ PUSH2 0x7B0 JUMPI PUSH2 0x1F8 JUMP JUMPDEST DUP1 PUSH4 0x95D89B41 EQ PUSH2 0x63E JUMPI DUP1 PUSH4 0xA22CB465 EQ PUSH2 0x668 JUMPI DUP1 PUSH4 0xAA3BCCCB EQ PUSH2 0x690 JUMPI DUP1 PUSH4 0xB88D4FDE EQ PUSH2 0x6CC JUMPI PUSH2 0x1F8 JUMP JUMPDEST DUP1 PUSH4 0x8456CB59 GT PUSH2 0xDB JUMPI DUP1 PUSH4 0x8456CB59 EQ PUSH2 0x598 JUMPI DUP1 PUSH4 0x8C373EF4 EQ PUSH2 0x5AE JUMPI DUP1 PUSH4 0x8D859F3E EQ PUSH2 0x5EA JUMPI DUP1 PUSH4 0x8DA5CB5B EQ PUSH2 0x614 JUMPI PUSH2 0x1F8 JUMP JUMPDEST DUP1 PUSH4 0x6018184D EQ PUSH2 0x500 JUMPI DUP1 PUSH4 0x6352211E EQ PUSH2 0x50A JUMPI DUP1 PUSH4 0x70A08231 EQ PUSH2 0x546 JUMPI DUP1 PUSH4 0x715018A6 EQ PUSH2 0x582 JUMPI PUSH2 0x1F8 JUMP JUMPDEST DUP1 PUSH4 0x2F745C59 GT PUSH2 0x18F JUMPI DUP1 PUSH4 0x42842E0E GT PUSH2 0x15E JUMPI DUP1 PUSH4 0x42842E0E EQ PUSH2 0x434 JUMPI DUP1 PUSH4 0x42966C68 EQ PUSH2 0x45C JUMPI DUP1 PUSH4 0x4F6CCCE7 EQ PUSH2 0x484 JUMPI DUP1 PUSH4 0x5C975ABB EQ PUSH2 0x4C0 JUMPI DUP1 PUSH4 0x5FD8C710 EQ PUSH2 0x4EA JUMPI PUSH2 0x1F8 JUMP JUMPDEST DUP1 PUSH4 0x2F745C59 EQ PUSH2 0x37C JUMPI DUP1 PUSH4 0x32CB6B0C EQ PUSH2 0x3B8 JUMPI DUP1 PUSH4 0x39BD6FA5 EQ PUSH2 0x3E2 JUMPI DUP1 PUSH4 0x3F4BA83A EQ PUSH2 0x41E JUMPI PUSH2 0x1F8 JUMP JUMPDEST DUP1 PUSH4 0x95EA7B3 GT PUSH2 0x1CB JUMPI DUP1 PUSH4 0x95EA7B3 EQ PUSH2 0x2DA JUMPI DUP1 PUSH4 0x18160DDD EQ PUSH2 0x302 JUMPI DUP1 PUSH4 0x19385FB3 EQ PUSH2 0x32C JUMPI DUP1 PUSH4 0x23B872DD EQ PUSH2 0x354 JUMPI PUSH2 0x1F8 JUMP JUMPDEST DUP1 PUSH4 0x1FFC9A7 EQ PUSH2 0x1FC JUMPI DUP1 PUSH4 0x671131E EQ PUSH2 0x238 JUMPI DUP1 PUSH4 0x6FDDE03 EQ PUSH2 0x274 JUMPI DUP1 PUSH4 0x81812FC EQ PUSH2 0x29E JUMPI JUMPDEST PUSH0 DUP1 REVERT JUMPDEST CALLVALUE DUP1 ISZERO PUSH2 0x207 JUMPI PUSH0 DUP1 REVERT JUMPDEST POP PUSH2 0x222 PUSH1 0x4 DUP1 CALLDATASIZE SUB DUP2 ADD SWAP1 PUSH2 0x21D SWAP2 SWAP1 PUSH2 0x2D26 JUMP JUMPDEST PUSH2 0x7D8 JUMP JUMPDEST PUSH1 0x40 MLOAD PUSH2 0x22F SWAP2 SWAP1 PUSH2 0x2D6B JUMP JUMPDEST PUSH1 0x40 MLOAD DUP1 SWAP2 SUB SWAP1 RETURN JUMPDEST CALLVALUE DUP1 ISZERO PUSH2 0x243 JUMPI PUSH0 DUP1 REVERT JUMPDEST POP PUSH2 0x25E PUSH1 0x4 DUP1 CALLDATASIZE SUB DUP2 ADD SWAP1 PUSH2 0x259 SWAP2 SWAP1 PUSH2 0x2DB7 JUMP JUMPDEST PUSH2 0x7E9 JUMP JUMPDEST PUSH1 0x40 MLOAD PUSH2 0x26B SWAP2 SWAP1 PUSH2 0x2E21 JUMP JUMPDEST PUSH1 0x40 MLOAD DUP1 SWAP2 SUB SWAP1 RETURN JUMPDEST CALLVALUE DUP1 ISZERO PUSH2 0x27F JUMPI PUSH0 DUP1 REVERT JUMPDEST POP PUSH2 0x288 PUSH2 0x819 JUMP JUMPDEST PUSH1 0x40 MLOAD PUSH2 0x295 SWAP2 SWAP1 PUSH2 0x2EAA JUMP JUMPDEST PUSH1 0x40 MLOAD DUP1 SWAP2 SUB SWAP1 RETURN JUMPDEST CALLVALUE DUP1 ISZERO PUSH2 0x2A9 JUMPI PUSH0 DUP1 REVERT JUMPDEST POP PUSH2 0x2C4 PUSH1 0x4 DUP1 CALLDATASIZE SUB DUP2 ADD SWAP1 PUSH2 0x2BF SWAP2 SWAP1 PUSH2 0x2DB7 JUMP JUMPDEST PUSH2 0x8A8 JUMP JUMPDEST PUSH1 0x40 MLOAD PUSH2 0x2D1 SWAP2 SWAP1 PUSH2 0x2E21 JUMP JUMPDEST PUSH1 0x40 MLOAD DUP1 SWAP2 SUB SWAP1 RETURN JUMPDEST CALLVALUE DUP1 ISZERO PUSH2 0x2E5 JUMPI PUSH0 DUP1 REVERT JUMPDEST POP PUSH2 0x300 PUSH1 0x4 DUP1 CALLDATASIZE SUB DUP2 ADD SWAP1 PUSH2 0x2FB SWAP2 SWAP1 PUSH2 0x2EF4 JUMP JUMPDEST PUSH2 0x8C3 JUMP JUMPDEST STOP JUMPDEST CALLVALUE DUP1 ISZERO PUSH2 0x30D JUMPI PUSH0 DUP1 REVERT JUMPDEST POP PUSH2 0x316 PUSH2 0x8D9 JUMP JUMPDEST PUSH1 0x40 MLOAD PUSH2 0x323 SWAP2 SWAP1 PUSH2 0x2F41 JUMP JUMPDEST PUSH1 0x40 MLOAD DUP1 SWAP2 SUB SWAP1 RETURN JUMPDEST CALLVALUE DUP1 ISZERO PUSH2 0x337 JUMPI PUSH0 DUP1 REVERT JUMPDEST POP PUSH2 0x352 PUSH1 0x4 DUP1 CALLDATASIZE SUB DUP2 ADD SWAP1 PUSH2 0x34D SWAP2 SWAP1 PUSH2 0x3086 JUMP JUMPDEST PUSH2 0x8E5 JUMP JUMPDEST STOP JUMPDEST CALLVALUE DUP1 ISZERO PUSH2 0x35F JUMPI PUSH0 DUP1 REVERT JUMPDEST POP PUSH2 0x37A PUSH1 0x4 DUP1 CALLDATASIZE SUB DUP2 ADD SWAP1 PUSH2 0x375 SWAP2 SWAP1 PUSH2 0x30E0 JUMP JUMPDEST PUSH2 0x9B6 JUMP JUMPDEST STOP JUMPDEST CALLVALUE DUP1 ISZERO PUSH2 0x387 JUMPI PUSH0 DUP1 REVERT JUMPDEST POP PUSH2 0x3A2 PUSH1 0x4 DUP1 CALLDATASIZE SUB DUP2 ADD SWAP1 PUSH2 0x39D SWAP2 SWAP1 PUSH2 0x2EF4 JUMP JUMPDEST PUSH2 0xAB5 JUMP JUMPDEST PUSH1 0x40 MLOAD PUSH2 0x3AF SWAP2 SWAP1 PUSH2 0x2F41 JUMP JUMPDEST PUSH1 0x40 MLOAD DUP1 SWAP2 SUB SWAP1 RETURN JUMPDEST CALLVALUE DUP1 ISZERO PUSH2 0x3C3 JUMPI PUSH0 DUP1 REVERT JUMPDEST POP PUSH2 0x3CC PUSH2 0xB59 JUMP JUMPDEST PUSH1 0x40 MLOAD PUSH2 0x3D9 SWAP2 SWAP1 PUSH2 0x2F41 JUMP JUMPDEST PUSH1 0x40 MLOAD DUP1 SWAP2 SUB SWAP1 RETURN JUMPDEST CALLVALUE DUP1 ISZERO PUSH2 0x3ED JUMPI PUSH0 DUP1 REVERT JUMPDEST POP PUSH2 0x408 PUSH1 0x4 DUP1 CALLDATASIZE SUB DUP2 ADD SWAP1 PUSH2 0x403 SWAP2 SWAP1 PUSH2 0x2DB7 JUMP JUMPDEST PUSH2 0xB60 JUMP JUMPDEST PUSH1 0x40 MLOAD PUSH2 0x415 SWAP2 SWAP1 PUSH2 0x2D6B JUMP JUMPDEST PUSH1 0x40 MLOAD DUP1 SWAP2 SUB SWAP1 RETURN JUMPDEST CALLVALUE DUP1 ISZERO PUSH2 0x429 JUMPI PUSH0 DUP1 REVERT JUMPDEST POP PUSH2 0x432 PUSH2 0xB7D JUMP JUMPDEST STOP JUMPDEST CALLVALUE DUP1 ISZERO PUSH2 0x43F JUMPI PUSH0 DUP1 REVERT JUMPDEST POP PUSH2 0x45A PUSH1 0x4 DUP1 CALLDATASIZE SUB DUP2 ADD SWAP1 PUSH2 0x455 SWAP2 SWAP1 PUSH2 0x30E0 JUMP JUMPDEST PUSH2 0xB8F JUMP JUMPDEST STOP JUMPDEST CALLVALUE DUP1 ISZERO PUSH2 0x467 JUMPI PUSH0 DUP1 REVERT JUMPDEST POP PUSH2 0x482 PUSH1 0x4 DUP1 CALLDATASIZE SUB DUP2 ADD SWAP1 PUSH2 0x47D SWAP2 SWAP1 PUSH2 0x2DB7 JUMP JUMPDEST PUSH2 0xBAE JUMP JUMPDEST STOP JUMPDEST CALLVALUE DUP1 ISZERO PUSH2 0x48F JUMPI PUSH0 DUP1 REVERT JUMPDEST POP PUSH2 0x4AA PUSH1 0x4 DUP1 CALLDATASIZE SUB DUP2 ADD SWAP1 PUSH2 0x4A5 SWAP2 SWAP1 PUSH2 0x2DB7 JUMP JUMPDEST PUSH2 0xBC4 JUMP JUMPDEST PUSH1 0x40 MLOAD PUSH2 0x4B7 SWAP2 SWAP1 PUSH2 0x2F41 JUMP JUMPDEST PUSH1 0x40 MLOAD DUP1 SWAP2 SUB SWAP1 RETURN JUMPDEST CALLVALUE DUP1 ISZERO PUSH2 0x4CB JUMPI PUSH0 DUP1 REVERT JUMPDEST POP PUSH2 0x4D4 PUSH2 0xC36 JUMP JUMPDEST PUSH1 0x40 MLOAD PUSH2 0x4E1 SWAP2 SWAP1 PUSH2 0x2D6B JUMP JUMPDEST PUSH1 0x40 MLOAD DUP1 SWAP2 SUB SWAP1 RETURN JUMPDEST CALLVALUE DUP1 ISZERO PUSH2 0x4F5 JUMPI PUSH0 DUP1 REVERT JUMPDEST POP PUSH2 0x4FE PUSH2 0xC4B JUMP JUMPDEST STOP JUMPDEST PUSH2 0x508 PUSH2 0xCA5 JUMP JUMPDEST STOP JUMPDEST CALLVALUE DUP1 ISZERO PUSH2 0x515 JUMPI PUSH0 DUP1 REVERT JUMPDEST POP PUSH2 0x530 PUSH1 0x4 DUP1 CALLDATASIZE SUB DUP2 ADD SWAP1 PUSH2 0x52B SWAP2 SWAP1 PUSH2 0x2DB7 JUMP JUMPDEST PUSH2 0xDAF JUMP JUMPDEST PUSH1 0x40 MLOAD PUSH2 0x53D SWAP2 SWAP1 PUSH2 0x2E21 JUMP JUMPDEST PUSH1 0x40 MLOAD DUP1 SWAP2 SUB SWAP1 RETURN JUMPDEST CALLVALUE DUP1 ISZERO PUSH2 0x551 JUMPI PUSH0 DUP1 REVERT JUMPDEST POP PUSH2 0x56C PUSH1 0x4 DUP1 CALLDATASIZE SUB DUP2 ADD SWAP1 PUSH2 0x567 SWAP2 SWAP1 PUSH2 0x3130 JUMP JUMPDEST PUSH2 0xDC0 JUMP JUMPDEST PUSH1 0x40 MLOAD PUSH2 0x579 SWAP2 SWAP1 PUSH2 0x2F41 JUMP JUMPDEST PUSH1 0x40 MLOAD DUP1 SWAP2 SUB SWAP1 RETURN JUMPDEST CALLVALUE DUP1 ISZERO PUSH2 0x58D JUMPI PUSH0 DUP1 REVERT JUMPDEST POP PUSH2 0x596 PUSH2 0xE76 JUMP JUMPDEST STOP JUMPDEST CALLVALUE DUP1 ISZERO PUSH2 0x5A3 JUMPI PUSH0 DUP1 REVERT JUMPDEST POP PUSH2 0x5AC PUSH2 0xE89 JUMP JUMPDEST STOP JUMPDEST CALLVALUE DUP1 ISZERO PUSH2 0x5B9 JUMPI PUSH0 DUP1 REVERT JUMPDEST POP PUSH2 0x5D4 PUSH1 0x4 DUP1 CALLDATASIZE SUB DUP2 ADD SWAP1 PUSH2 0x5CF SWAP2 SWAP1 PUSH2 0x2DB7 JUMP JUMPDEST PUSH2 0xE9B JUMP JUMPDEST PUSH1 0x40 MLOAD PUSH2 0x5E1 SWAP2 SWAP1 PUSH2 0x2F41 JUMP JUMPDEST PUSH1 0x40 MLOAD DUP1 SWAP2 SUB SWAP1 RETURN JUMPDEST CALLVALUE DUP1 ISZERO PUSH2 0x5F5 JUMPI PUSH0 DUP1 REVERT JUMPDEST POP PUSH2 0x5FE PUSH2 0xEB0 JUMP JUMPDEST PUSH1 0x40 MLOAD PUSH2 0x60B SWAP2 SWAP1 PUSH2 0x2F41 JUMP JUMPDEST PUSH1 0x40 MLOAD DUP1 SWAP2 SUB SWAP1 RETURN JUMPDEST CALLVALUE DUP1 ISZERO PUSH2 0x61F JUMPI PUSH0 DUP1 REVERT JUMPDEST POP PUSH2 0x628 PUSH2 0xEBB JUMP JUMPDEST PUSH1 0x40 MLOAD PUSH2 0x635 SWAP2 SWAP1 PUSH2 0x2E21 JUMP JUMPDEST PUSH1 0x40 MLOAD DUP1 SWAP2 SUB SWAP1 RETURN JUMPDEST CALLVALUE DUP1 ISZERO PUSH2 0x649 JUMPI PUSH0 DUP1 REVERT JUMPDEST POP PUSH2 0x652 PUSH2 0xEE4 JUMP JUMPDEST PUSH1 0x40 MLOAD PUSH2 0x65F SWAP2 SWAP1 PUSH2 0x2EAA JUMP JUMPDEST PUSH1 0x40 MLOAD DUP1 SWAP2 SUB SWAP1 RETURN JUMPDEST CALLVALUE DUP1 ISZERO PUSH2 0x673 JUMPI PUSH0 DUP1 REVERT JUMPDEST POP PUSH2 0x68E PUSH1 0x4 DUP1 CALLDATASIZE SUB DUP2 ADD SWAP1 PUSH2 0x689 SWAP2 SWAP1 PUSH2 0x3185 JUMP JUMPDEST PUSH2 0xF74 JUMP JUMPDEST STOP JUMPDEST CALLVALUE DUP1 ISZERO PUSH2 0x69B JUMPI PUSH0 DUP1 REVERT JUMPDEST POP PUSH2 0x6B6 PUSH1 0x4 DUP1 CALLDATASIZE SUB DUP2 ADD SWAP1 PUSH2 0x6B1 SWAP2 SWAP1 PUSH2 0x2DB7 JUMP JUMPDEST PUSH2 0xF8A JUMP JUMPDEST PUSH1 0x40 MLOAD PUSH2 0x6C3 SWAP2 SWAP1 PUSH2 0x2EAA JUMP JUMPDEST PUSH1 0x40 MLOAD DUP1 SWAP2 SUB SWAP1 RETURN JUMPDEST CALLVALUE DUP1 ISZERO PUSH2 0x6D7 JUMPI PUSH0 DUP1 REVERT JUMPDEST POP PUSH2 0x6F2 PUSH1 0x4 DUP1 CALLDATASIZE SUB DUP2 ADD SWAP1 PUSH2 0x6ED SWAP2 SWAP1 PUSH2 0x3261 JUMP JUMPDEST PUSH2 0x1025 JUMP JUMPDEST STOP JUMPDEST CALLVALUE DUP1 ISZERO PUSH2 0x6FF JUMPI PUSH0 DUP1 REVERT JUMPDEST POP PUSH2 0x71A PUSH1 0x4 DUP1 CALLDATASIZE SUB DUP2 ADD SWAP1 PUSH2 0x715 SWAP2 SWAP1 PUSH2 0x32E1 JUMP JUMPDEST PUSH2 0x1042 JUMP JUMPDEST STOP JUMPDEST CALLVALUE DUP1 ISZERO PUSH2 0x727 JUMPI PUSH0 DUP1 REVERT JUMPDEST POP PUSH2 0x742 PUSH1 0x4 DUP1 CALLDATASIZE SUB DUP2 ADD SWAP1 PUSH2 0x73D SWAP2 SWAP1 PUSH2 0x2DB7 JUMP JUMPDEST PUSH2 0x1133 JUMP JUMPDEST PUSH1 0x40 MLOAD PUSH2 0x74F SWAP2 SWAP1 PUSH2 0x2EAA JUMP JUMPDEST PUSH1 0x40 MLOAD DUP1 SWAP2 SUB SWAP1 RETURN JUMPDEST PUSH2 0x772 PUSH1 0x4 DUP1 CALLDATASIZE SUB DUP2 ADD SWAP1 PUSH2 0x76D SWAP2 SWAP1 PUSH2 0x2DB7 JUMP JUMPDEST PUSH2 0x1145 JUMP JUMPDEST STOP JUMPDEST CALLVALUE DUP1 ISZERO PUSH2 0x77F JUMPI PUSH0 DUP1 REVERT JUMPDEST POP PUSH2 0x79A PUSH1 0x4 DUP1 CALLDATASIZE SUB DUP2 ADD SWAP1 PUSH2 0x795 SWAP2 SWAP1 PUSH2 0x331F JUMP JUMPDEST PUSH2 0x1308 JUMP JUMPDEST PUSH1 0x40 MLOAD PUSH2 0x7A7 SWAP2 SWAP1 PUSH2 0x2D6B JUMP JUMPDEST PUSH1 0x40 MLOAD DUP1 SWAP2 SUB SWAP1 RETURN JUMPDEST CALLVALUE DUP1 ISZERO PUSH2 0x7BB JUMPI PUSH0 DUP1 REVERT JUMPDEST POP PUSH2 0x7D6 PUSH1 0x4 DUP1 CALLDATASIZE SUB DUP2 ADD SWAP1 PUSH2 0x7D1 SWAP2 SWAP1 PUSH2 0x3130 JUMP JUMPDEST PUSH2 0x1396 JUMP JUMPDEST STOP JUMPDEST PUSH0 PUSH2 0x7E2 DUP3 PUSH2 0x141A JUMP JUMPDEST SWAP1 POP SWAP2 SWAP1 POP JUMP JUMPDEST PUSH1 0xD PUSH1 0x20 MSTORE DUP1 PUSH0 MSTORE PUSH1 0x40 PUSH0 KECCAK256 PUSH0 SWAP2 POP SLOAD SWAP1 PUSH2 0x100 EXP SWAP1 DIV PUSH20 0xFFFFFFFFFFFFFFFFFFFFFFFFFFFFFFFFFFFFFFFF AND DUP2 JUMP JUMPDEST PUSH1 0x60 PUSH0 DUP1 SLOAD PUSH2 0x827 SWAP1 PUSH2 0x338A JUMP JUMPDEST DUP1 PUSH1 0x1F ADD PUSH1 0x20 DUP1 SWAP2 DIV MUL PUSH1 0x20 ADD PUSH1 0x40 MLOAD SWAP1 DUP2 ADD PUSH1 0x40 MSTORE DUP1 SWAP3 SWAP2 SWAP1 DUP2 DUP2 MSTORE PUSH1 0x20 ADD DUP3 DUP1 SLOAD PUSH2 0x853 SWAP1 PUSH2 0x338A JUMP JUMPDEST DUP1 ISZERO PUSH2 0x89E JUMPI DUP1 PUSH1 0x1F LT PUSH2 0x875 JUMPI PUSH2 0x100 DUP1 DUP4 SLOAD DIV MUL DUP4 MSTORE SWAP2 PUSH1 0x20 ADD SWAP2 PUSH2 0x89E JUMP JUMPDEST DUP3 ADD SWAP2 SWAP1 PUSH0 MSTORE PUSH1 0x20 PUSH0 KECCAK256 SWAP1 JUMPDEST DUP2 SLOAD DUP2 MSTORE SWAP1 PUSH1 0x1 ADD SWAP1 PUSH1 0x20 ADD DUP1 DUP4 GT PUSH2 0x881 JUMPI DUP3 SWAP1 SUB PUSH1 0x1F AND DUP3 ADD SWAP2 JUMPDEST POP POP POP POP POP SWAP1 POP SWAP1 JUMP JUMPDEST PUSH0 PUSH2 0x8B2 DUP3 PUSH2 0x147A JUMP JUMPDEST POP PUSH2 0x8BC DUP3 PUSH2 0x1500 JUMP JUMPDEST SWAP1 POP SWAP2 SWAP1 POP JUMP JUMPDEST PUSH2 0x8D5 DUP3 DUP3 PUSH2 0x8D0 PUSH2 0x1539 JUMP JUMPDEST PUSH2 0x1540 JUMP JUMPDEST POP POP JUMP JUMPDEST PUSH0 PUSH1 0x8 DUP1 SLOAD SWAP1 POP SWAP1 POP SWAP1 JUMP JUMPDEST CALLER PUSH20 0xFFFFFFFFFFFFFFFFFFFFFFFFFFFFFFFFFFFFFFFF AND PUSH2 0x905 DUP4 PUSH2 0xDAF JUMP JUMPDEST PUSH20 0xFFFFFFFFFFFFFFFFFFFFFFFFFFFFFFFFFFFFFFFF AND EQ PUSH2 0x95B JUMPI PUSH1 0x40 MLOAD PUSH32 0x8C379A000000000000000000000000000000000000000000000000000000000 DUP2 MSTORE PUSH1 0x4 ADD PUSH2 0x952 SWAP1 PUSH2 0x3404 JUMP JUMPDEST PUSH1 0x40 MLOAD DUP1 SWAP2 SUB SWAP1 REVERT JUMPDEST DUP1 PUSH1 0xE PUSH0 DUP5 DUP2 MSTORE PUSH1 0x20 ADD SWAP1 DUP2 MSTORE PUSH1 0x20 ADD PUSH0 KECCAK256 SWAP1 DUP2 PUSH2 0x979 SWAP2 SWAP1 PUSH2 0x35BF JUMP JUMPDEST POP DUP2 PUSH32 0x51DA1C5C5BC0477ED37EA7D398E664D84859393FA2EFBFE23BD015383890C852 DUP3 PUSH1 0x40 MLOAD PUSH2 0x9AA SWAP2 SWAP1 PUSH2 0x2EAA JUMP JUMPDEST PUSH1 0x40 MLOAD DUP1 SWAP2 SUB SWAP1 LOG2 POP POP JUMP JUMPDEST PUSH0 PUSH20 0xFFFFFFFFFFFFFFFFFFFFFFFFFFFFFFFFFFFFFFFF AND DUP3 PUSH20 0xFFFFFFFFFFFFFFFFFFFFFFFFFFFFFFFFFFFFFFFF AND SUB PUSH2 0xA26 JUMPI PUSH0 PUSH1 0x40 MLOAD PUSH32 0x64A0AE9200000000000000000000000000000000000000000000000000000000 DUP2 MSTORE PUSH1 0x4 ADD PUSH2 0xA1D SWAP2 SWAP1 PUSH2 0x2E21 JUMP JUMPDEST PUSH1 0x40 MLOAD DUP1 SWAP2 SUB SWAP1 REVERT JUMPDEST PUSH0 PUSH2 0xA39 DUP4 DUP4 PUSH2 0xA34 PUSH2 0x1539 JUMP JUMPDEST PUSH2 0x1552 JUMP JUMPDEST SWAP1 POP DUP4 PUSH20 0xFFFFFFFFFFFFFFFFFFFFFFFFFFFFFFFFFFFFFFFF AND DUP2 PUSH20 0xFFFFFFFFFFFFFFFFFFFFFFFFFFFFFFFFFFFFFFFF AND EQ PUSH2 0xAAF JUMPI DUP4 DUP3 DUP3 PUSH1 0x40 MLOAD PUSH32 0x64283D7B00000000000000000000000000000000000000000000000000000000 DUP2 MSTORE PUSH1 0x4 ADD PUSH2 0xAA6 SWAP4 SWAP3 SWAP2 SWAP1 PUSH2 0x368E JUMP JUMPDEST PUSH1 0x40 MLOAD DUP1 SWAP2 SUB SWAP1 REVERT JUMPDEST POP POP POP POP JUMP JUMPDEST PUSH0 PUSH2 0xABF DUP4 PUSH2 0xDC0 JUMP JUMPDEST DUP3 LT PUSH2 0xB04 JUMPI DUP3 DUP3 PUSH1 0x40 MLOAD PUSH32 0xA57D13DC00000000000000000000000000000000000000000000000000000000 DUP2 MSTORE PUSH1 0x4 ADD PUSH2 0xAFB SWAP3 SWAP2 SWAP1 PUSH2 0x36C3 JUMP JUMPDEST PUSH1 0x40 MLOAD DUP1 SWAP2 SUB SWAP1 REVERT JUMPDEST PUSH1 0x6 PUSH0 DUP5 PUSH20 0xFFFFFFFFFFFFFFFFFFFFFFFFFFFFFFFFFFFFFFFF AND PUSH20 0xFFFFFFFFFFFFFFFFFFFFFFFFFFFFFFFFFFFFFFFF AND DUP2 MSTORE PUSH1 0x20 ADD SWAP1 DUP2 MSTORE PUSH1 0x20 ADD PUSH0 KECCAK256 PUSH0 DUP4 DUP2 MSTORE PUSH1 0x20 ADD SWAP1 DUP2 MSTORE PUSH1 0x20 ADD PUSH0 KECCAK256 SLOAD SWAP1 POP SWAP3 SWAP2 POP POP JUMP JUMPDEST PUSH3 0xF4240 DUP2 JUMP JUMPDEST PUSH1 0xF PUSH1 0x20 MSTORE DUP1 PUSH0 MSTORE PUSH1 0x40 PUSH0 KECCAK256 PUSH0 SWAP2 POP SLOAD SWAP1 PUSH2 0x100 EXP SWAP1 DIV PUSH1 0xFF AND DUP2 JUMP JUMPDEST PUSH2 0xB85 PUSH2 0x1567 JUMP JUMPDEST PUSH2 0xB8D PUSH2 0x15EE JUMP JUMPDEST JUMP JUMPDEST PUSH2 0xBA9 DUP4 DUP4 DUP4 PUSH1 0x40 MLOAD DUP1 PUSH1 0x20 ADD PUSH1 0x40 MSTORE DUP1 PUSH0 DUP2 MSTORE POP PUSH2 0x1025 JUMP JUMPDEST POP POP POP JUMP JUMPDEST PUSH2 0xBC0 PUSH0 DUP3 PUSH2 0xBBB PUSH2 0x1539 JUMP JUMPDEST PUSH2 0x1552 JUMP JUMPDEST POP POP JUMP JUMPDEST PUSH0 PUSH2 0xBCD PUSH2 0x8D9 JUMP JUMPDEST DUP3 LT PUSH2 0xC12 JUMPI PUSH0 DUP3 PUSH1 0x40 MLOAD PUSH32 0xA57D13DC00000000000000000000000000000000000000000000000000000000 DUP2 MSTORE PUSH1 0x4 ADD PUSH2 0xC09 SWAP3 SWAP2 SWAP1 PUSH2 0x36C3 JUMP JUMPDEST PUSH1 0x40 MLOAD DUP1 SWAP2 SUB SWAP1 REVERT JUMPDEST PUSH1 0x8 DUP3 DUP2 SLOAD DUP2 LT PUSH2 0xC26 JUMPI PUSH2 0xC25 PUSH2 0x36EA JUMP JUMPDEST JUMPDEST SWAP1 PUSH0 MSTORE PUSH1 0x20 PUSH0 KECCAK256 ADD SLOAD SWAP1 POP SWAP2 SWAP1 POP JUMP JUMPDEST PUSH0 PUSH1 0xB PUSH0 SWAP1 SLOAD SWAP1 PUSH2 0x100 EXP SWAP1 DIV PUSH1 0xFF AND SWAP1 POP SWAP1 JUMP JUMPDEST PUSH2 0xC53 PUSH2 0x1567 JUMP JUMPDEST PUSH0 SELFBALANCE SWAP1 POP PUSH2 0xC5F PUSH2 0xEBB JUMP JUMPDEST PUSH20 0xFFFFFFFFFFFFFFFFFFFFFFFFFFFFFFFFFFFFFFFF AND PUSH2 0x8FC DUP3 SWAP1 DUP2 ISZERO MUL SWAP1 PUSH1 0x40 MLOAD PUSH0 PUSH1 0x40 MLOAD DUP1 DUP4 SUB DUP2 DUP6 DUP9 DUP9 CALL SWAP4 POP POP POP POP ISZERO DUP1 ISZERO PUSH2 0xCA1 JUMPI RETURNDATASIZE PUSH0 DUP1 RETURNDATACOPY RETURNDATASIZE PUSH0 REVERT JUMPDEST POP POP JUMP JUMPDEST PUSH7 0x2386F26FC10000 CALLVALUE LT ISZERO PUSH2 0xCEF JUMPI PUSH1 0x40 MLOAD PUSH32 0x8C379A000000000000000000000000000000000000000000000000000000000 DUP2 MSTORE PUSH1 0x4 ADD PUSH2 0xCE6 SWAP1 PUSH2 0x3761 JUMP JUMPDEST PUSH1 0x40 MLOAD DUP1 SWAP2 SUB SWAP1 REVERT JUMPDEST PUSH3 0xF4240 PUSH1 0xC SLOAD LT PUSH2 0xD36 JUMPI PUSH1 0x40 MLOAD PUSH32 0x8C379A000000000000000000000000000000000000000000000000000000000 DUP2 MSTORE PUSH1 0x4 ADD PUSH2 0xD2D SWAP1 PUSH2 0x37C9 JUMP JUMPDEST PUSH1 0x40 MLOAD DUP1 SWAP2 SUB SWAP1 REVERT JUMPDEST PUSH0 PUSH1 0xC SLOAD SWAP1 POP PUSH1 0xC PUSH0 DUP2 SLOAD DUP1 SWAP3 SWAP2 SWAP1 PUSH2 0xD4E SWAP1 PUSH2 0x3814 JUMP JUMPDEST SWAP2 SWAP1 POP SSTORE POP PUSH2 0xD5D CALLER DUP3 PUSH2 0x164F JUMP JUMPDEST CALLER PUSH1 0xD PUSH0 DUP4 DUP2 MSTORE PUSH1 0x20 ADD SWAP1 DUP2 MSTORE PUSH1 0x20 ADD PUSH0 KECCAK256 PUSH0 PUSH2 0x100 EXP DUP2 SLOAD DUP2 PUSH20 0xFFFFFFFFFFFFFFFFFFFFFFFFFFFFFFFFFFFFFFFF MUL NOT AND SWAP1 DUP4 PUSH20 0xFFFFFFFFFFFFFFFFFFFFFFFFFFFFFFFFFFFFFFFF AND MUL OR SWAP1 SSTORE POP POP JUMP JUMPDEST PUSH0 PUSH2 0xDB9 DUP3 PUSH2 0x147A JUMP JUMPDEST SWAP1 POP SWAP2 SWAP1 POP JUMP JUMPDEST PUSH0 DUP1 PUSH20 0xFFFFFFFFFFFFFFFFFFFFFFFFFFFFFFFFFFFFFFFF AND DUP3 PUSH20 0xFFFFFFFFFFFFFFFFFFFFFFFFFFFFFFFFFFFFFFFF AND SUB PUSH2 0xE31 JUMPI PUSH0 PUSH1 0x40 MLOAD PUSH32 0x89C62B6400000000000000000000000000000000000000000000000000000000 DUP2 MSTORE PUSH1 0x4 ADD PUSH2 0xE28 SWAP2 SWAP1 PUSH2 0x2E21 JUMP JUMPDEST PUSH1 0x40 MLOAD DUP1 SWAP2 SUB SWAP1 REVERT JUMPDEST PUSH1 0x3 PUSH0 DUP4 PUSH20 0xFFFFFFFFFFFFFFFFFFFFFFFFFFFFFFFFFFFFFFFF AND PUSH20 0xFFFFFFFFFFFFFFFFFFFFFFFFFFFFFFFFFFFFFFFF AND DUP2 MSTORE PUSH1 0x20 ADD SWAP1 DUP2 MSTORE PUSH1 0x20 ADD PUSH0 KECCAK256 SLOAD SWAP1 POP SWAP2 SWAP1 POP JUMP JUMPDEST PUSH2 0xE7E PUSH2 0x1567 JUMP JUMPDEST PUSH2 0xE87 PUSH0 PUSH2 0x166C JUMP JUMPDEST JUMP JUMPDEST PUSH2 0xE91 PUSH2 0x1567 JUMP JUMPDEST PUSH2 0xE99 PUSH2 0x1731 JUMP JUMPDEST JUMP JUMPDEST PUSH1 0x10 PUSH1 0x20 MSTORE DUP1 PUSH0 MSTORE PUSH1 0x40 PUSH0 KECCAK256 PUSH0 SWAP2 POP SWAP1 POP SLOAD DUP2 JUMP JUMPDEST PUSH7 0x2386F26FC10000 DUP2 JUMP JUMPDEST PUSH0 PUSH1 0xB PUSH1 0x1 SWAP1 SLOAD SWAP1 PUSH2 0x100 EXP SWAP1 DIV PUSH20 0xFFFFFFFFFFFFFFFFFFFFFFFFFFFFFFFFFFFFFFFF AND SWAP1 POP SWAP1 JUMP JUMPDEST PUSH1 0x60 PUSH1 0x1 DUP1 SLOAD PUSH2 0xEF3 SWAP1 PUSH2 0x338A JUMP JUMPDEST DUP1 PUSH1 0x1F ADD PUSH1 0x20 DUP1 SWAP2 DIV MUL PUSH1 0x20 ADD PUSH1 0x40 MLOAD SWAP1 DUP2 ADD PUSH1 0x40 MSTORE DUP1 SWAP3 SWAP2 SWAP1 DUP2 DUP2 MSTORE PUSH1 0x20 ADD DUP3 DUP1 SLOAD PUSH2 0xF1F SWAP1 PUSH2 0x338A JUMP JUMPDEST DUP1 ISZERO PUSH2 0xF6A JUMPI DUP1 PUSH1 0x1F LT PUSH2 0xF41 JUMPI PUSH2 0x100 DUP1 DUP4 SLOAD DIV MUL DUP4 MSTORE SWAP2 PUSH1 0x20 ADD SWAP2 PUSH2 0xF6A JUMP JUMPDEST DUP3 ADD SWAP2 SWAP1 PUSH0 MSTORE PUSH1 0x20 PUSH0 KECCAK256 SWAP1 JUMPDEST DUP2 SLOAD DUP2 MSTORE SWAP1 PUSH1 0x1 ADD SWAP1 PUSH1 0x20 ADD DUP1 DUP4 GT PUSH2 0xF4D JUMPI DUP3 SWAP1 SUB PUSH1 0x1F AND DUP3 ADD SWAP2 JUMPDEST POP POP POP POP POP SWAP1 POP SWAP1 JUMP JUMPDEST PUSH2 0xF86 PUSH2 0xF7F PUSH2 0x1539 JUMP JUMPDEST DUP4 DUP4 PUSH2 0x1793 JUMP JUMPDEST POP POP JUMP JUMPDEST PUSH1 0xE PUSH1 0x20 MSTORE DUP1 PUSH0 MSTORE PUSH1 0x40 PUSH0 KECCAK256 PUSH0 SWAP2 POP SWAP1 POP DUP1 SLOAD PUSH2 0xFA6 SWAP1 PUSH2 0x338A JUMP JUMPDEST DUP1 PUSH1 0x1F ADD PUSH1 0x20 DUP1 SWAP2 DIV MUL PUSH1 0x20 ADD PUSH1 0x40 MLOAD SWAP1 DUP2 ADD PUSH1 0x40 MSTORE DUP1 SWAP3 SWAP2 SWAP1 DUP2 DUP2 MSTORE PUSH1 0x20 ADD DUP3 DUP1 SLOAD PUSH2 0xFD2 SWAP1 PUSH2 0x338A JUMP JUMPDEST DUP1 ISZERO PUSH2 0x101D JUMPI DUP1 PUSH1 0x1F LT PUSH2 0xFF4 JUMPI PUSH2 0x100 DUP1 DUP4 SLOAD DIV MUL DUP4 MSTORE SWAP2 PUSH1 0x20 ADD SWAP2 PUSH2 0x101D JUMP JUMPDEST DUP3 ADD SWAP2 SWAP1 PUSH0 MSTORE PUSH1 0x20 PUSH0 KECCAK256 SWAP1 JUMPDEST DUP2 SLOAD DUP2 MSTORE SWAP1 PUSH1 0x1 ADD SWAP1 PUSH1 0x20 ADD DUP1 DUP4 GT PUSH2 0x1000 JUMPI DUP3 SWAP1 SUB PUSH1 0x1F AND DUP3 ADD SWAP2 JUMPDEST POP POP POP POP POP DUP2 JUMP JUMPDEST PUSH2 0x1030 DUP5 DUP5 DUP5 PUSH2 0x9B6 JUMP JUMPDEST PUSH2 0x103C DUP5 DUP5 DUP5 DUP5 PUSH2 0x18FC JUMP JUMPDEST POP POP POP POP JUMP JUMPDEST CALLER PUSH20 0xFFFFFFFFFFFFFFFFFFFFFFFFFFFFFFFFFFFFFFFF AND PUSH2 0x1062 DUP4 PUSH2 0xDAF JUMP JUMPDEST PUSH20 0xFFFFFFFFFFFFFFFFFFFFFFFFFFFFFFFFFFFFFFFF AND EQ PUSH2 0x10B8 JUMPI PUSH1 0x40 MLOAD PUSH32 0x8C379A000000000000000000000000000000000000000000000000000000000 DUP2 MSTORE PUSH1 0x4 ADD PUSH2 0x10AF SWAP1 PUSH2 0x3404 JUMP JUMPDEST PUSH1 0x40 MLOAD DUP1 SWAP2 SUB SWAP1 REVERT JUMPDEST PUSH1 0x1 PUSH1 0xF PUSH0 DUP5 DUP2 MSTORE PUSH1 0x20 ADD SWAP1 DUP2 MSTORE PUSH1 0x20 ADD PUSH0 KECCAK256 PUSH0 PUSH2 0x100 EXP DUP2 SLOAD DUP2 PUSH1 0xFF MUL NOT AND SWAP1 DUP4 ISZERO ISZERO MUL OR SWAP1 SSTORE POP DUP1 PUSH1 0x10 PUSH0 DUP5 DUP2 MSTORE PUSH1 0x20 ADD SWAP1 DUP2 MSTORE PUSH1 0x20 ADD PUSH0 KECCAK256 DUP2 SWAP1 SSTORE POP DUP2 PUSH32 0x86A024A50495E93BAD93B40AD1D02B792942BF3EEA3269365CF15A1BE2334B86 DUP3 PUSH1 0x40 MLOAD PUSH2 0x1127 SWAP2 SWAP1 PUSH2 0x2F41 JUMP JUMPDEST PUSH1 0x40 MLOAD DUP1 SWAP2 SUB SWAP1 LOG2 POP POP JUMP JUMPDEST PUSH1 0x60 PUSH2 0x113E DUP3 PUSH2 0x1AAE JUMP JUMPDEST SWAP1 POP SWAP2 SWAP1 POP JUMP JUMPDEST PUSH1 0xF PUSH0 DUP3 DUP2 MSTORE PUSH1 0x20 ADD SWAP1 DUP2 MSTORE PUSH1 0x20 ADD PUSH0 KECCAK256 PUSH0 SWAP1 SLOAD SWAP1 PUSH2 0x100 EXP SWAP1 DIV PUSH1 0xFF AND PUSH2 0x11A2 JUMPI PUSH1 0x40 MLOAD PUSH32 0x8C379A000000000000000000000000000000000000000000000000000000000 DUP2 MSTORE PUSH1 0x4 ADD PUSH2 0x1199 SWAP1 PUSH2 0x38A5 JUMP JUMPDEST PUSH1 0x40 MLOAD DUP1 SWAP2 SUB SWAP1 REVERT JUMPDEST PUSH1 0x10 PUSH0 DUP3 DUP2 MSTORE PUSH1 0x20 ADD SWAP1 DUP2 MSTORE PUSH1 0x20 ADD PUSH0 KECCAK256 SLOAD CALLVALUE LT ISZERO PUSH2 0x11F6 JUMPI PUSH1 0x40 MLOAD PUSH32 0x8C379A000000000000000000000000000000000000000000000000000000000 DUP2 MSTORE PUSH1 0x4 ADD PUSH2 0x11ED SWAP1 PUSH2 0x3761 JUMP JUMPDEST PUSH1 0x40 MLOAD DUP1 SWAP2 SUB SWAP1 REVERT JUMPDEST PUSH0 PUSH2 0x1200 DUP3 PUSH2 0xDAF JUMP JUMPDEST SWAP1 POP PUSH2 0x120D DUP2 CALLER DUP5 PUSH2 0x1BB9 JUMP JUMPDEST CALLER PUSH1 0xD PUSH0 DUP5 DUP2 MSTORE PUSH1 0x20 ADD SWAP1 DUP2 MSTORE PUSH1 0x20 ADD PUSH0 KECCAK256 PUSH0 PUSH2 0x100 EXP DUP2 SLOAD DUP2 PUSH20 0xFFFFFFFFFFFFFFFFFFFFFFFFFFFFFFFFFFFFFFFF MUL NOT AND SWAP1 DUP4 PUSH20 0xFFFFFFFFFFFFFFFFFFFFFFFFFFFFFFFFFFFFFFFF AND MUL OR SWAP1 SSTORE POP PUSH0 PUSH1 0xF PUSH0 DUP5 DUP2 MSTORE PUSH1 0x20 ADD SWAP1 DUP2 MSTORE PUSH1 0x20 ADD PUSH0 KECCAK256 PUSH0 PUSH2 0x100 EXP DUP2 SLOAD DUP2 PUSH1 0xFF MUL NOT AND SWAP1 DUP4 ISZERO ISZERO MUL OR SWAP1 SSTORE POP DUP1 PUSH20 0xFFFFFFFFFFFFFFFFFFFFFFFFFFFFFFFFFFFFFFFF AND PUSH2 0x8FC CALLVALUE SWAP1 DUP2 ISZERO MUL SWAP1 PUSH1 0x40 MLOAD PUSH0 PUSH1 0x40 MLOAD DUP1 DUP4 SUB DUP2 DUP6 DUP9 DUP9 CALL SWAP4 POP POP POP POP ISZERO DUP1 ISZERO PUSH2 0x12C7 JUMPI RETURNDATASIZE PUSH0 DUP1 RETURNDATACOPY RETURNDATASIZE PUSH0 REVERT JUMPDEST POP DUP2 PUSH32 0xF4A307759CEF07A695AC4937778983B8FD8317D1C9ED5BC2FA4BCEEF21D0BD2E DUP3 CALLER CALLVALUE PUSH1 0x40 MLOAD PUSH2 0x12FC SWAP4 SWAP3 SWAP2 SWAP1 PUSH2 0x38C3 JUMP JUMPDEST PUSH1 0x40 MLOAD DUP1 SWAP2 SUB SWAP1 LOG2 POP POP JUMP JUMPDEST PUSH0 PUSH1 0x5 PUSH0 DUP5 PUSH20 0xFFFFFFFFFFFFFFFFFFFFFFFFFFFFFFFFFFFFFFFF AND PUSH20 0xFFFFFFFFFFFFFFFFFFFFFFFFFFFFFFFFFFFFFFFF AND DUP2 MSTORE PUSH1 0x20 ADD SWAP1 DUP2 MSTORE PUSH1 0x20 ADD PUSH0 KECCAK256 PUSH0 DUP4 PUSH20 0xFFFFFFFFFFFFFFFFFFFFFFFFFFFFFFFFFFFFFFFF AND PUSH20 0xFFFFFFFFFFFFFFFFFFFFFFFFFFFFFFFFFFFFFFFF AND DUP2 MSTORE PUSH1 0x20 ADD SWAP1 DUP2 MSTORE PUSH1 0x20 ADD PUSH0 KECCAK256 PUSH0 SWAP1 SLOAD SWAP1 PUSH2 0x100 EXP SWAP1 DIV PUSH1 0xFF AND SWAP1 POP SWAP3 SWAP2 POP POP JUMP JUMPDEST PUSH2 0x139E PUSH2 0x1567 JUMP JUMPDEST PUSH0 PUSH20 0xFFFFFFFFFFFFFFFFFFFFFFFFFFFFFFFFFFFFFFFF AND DUP2 PUSH20 0xFFFFFFFFFFFFFFFFFFFFFFFFFFFFFFFFFFFFFFFF AND SUB PUSH2 0x140E JUMPI PUSH0 PUSH1 0x40 MLOAD PUSH32 0x1E4FBDF700000000000000000000000000000000000000000000000000000000 DUP2 MSTORE PUSH1 0x4 ADD PUSH2 0x1405 SWAP2 SWAP1 PUSH2 0x2E21 JUMP JUMPDEST PUSH1 0x40 MLOAD DUP1 SWAP2 SUB SWAP1 REVERT JUMPDEST PUSH2 0x1417 DUP2 PUSH2 0x166C JUMP JUMPDEST POP JUMP JUMPDEST PUSH0 PUSH4 0x49064906 PUSH1 0xE0 SHL PUSH28 0xFFFFFFFFFFFFFFFFFFFFFFFFFFFFFFFFFFFFFFFFFFFFFFFFFFFFFFFF NOT AND DUP3 PUSH28 0xFFFFFFFFFFFFFFFFFFFFFFFFFFFFFFFFFFFFFFFFFFFFFFFFFFFFFFFF NOT AND EQ DUP1 PUSH2 0x1473 JUMPI POP PUSH2 0x1472 DUP3 PUSH2 0x1D21 JUMP JUMPDEST JUMPDEST SWAP1 POP SWAP2 SWAP1 POP JUMP JUMPDEST PUSH0 DUP1 PUSH2 0x1485 DUP4 PUSH2 0x1D9A JUMP JUMPDEST SWAP1 POP PUSH0 PUSH20 0xFFFFFFFFFFFFFFFFFFFFFFFFFFFFFFFFFFFFFFFF AND DUP2 PUSH20 0xFFFFFFFFFFFFFFFFFFFFFFFFFFFFFFFFFFFFFFFF AND SUB PUSH2 0x14F7 JUMPI DUP3 PUSH1 0x40 MLOAD PUSH32 0x7E27328900000000000000000000000000000000000000000000000000000000 DUP2 MSTORE PUSH1 0x4 ADD PUSH2 0x14EE SWAP2 SWAP1 PUSH2 0x2F41 JUMP JUMPDEST PUSH1 0x40 MLOAD DUP1 SWAP2 SUB SWAP1 REVERT JUMPDEST DUP1 SWAP2 POP POP SWAP2 SWAP1 POP JUMP JUMPDEST PUSH0 PUSH1 0x4 PUSH0 DUP4 DUP2 MSTORE PUSH1 0x20 ADD SWAP1 DUP2 MSTORE PUSH1 0x20 ADD PUSH0 KECCAK256 PUSH0 SWAP1 SLOAD SWAP1 PUSH2 0x100 EXP SWAP1 DIV PUSH20 0xFFFFFFFFFFFFFFFFFFFFFFFFFFFFFFFFFFFFFFFF AND SWAP1 POP SWAP2 SWAP1 POP JUMP JUMPDEST PUSH0 CALLER SWAP1 POP SWAP1 JUMP JUMPDEST PUSH2 0x154D DUP4 DUP4 DUP4 PUSH1 0x1 PUSH2 0x1DD3 JUMP JUMPDEST POP POP POP JUMP JUMPDEST PUSH0 PUSH2 0x155E DUP5 DUP5 DUP5 PUSH2 0x1F92 JUMP JUMPDEST SWAP1 POP SWAP4 SWAP3 POP POP POP JUMP JUMPDEST PUSH2 0x156F PUSH2 0x1539 JUMP JUMPDEST PUSH20 0xFFFFFFFFFFFFFFFFFFFFFFFFFFFFFFFFFFFFFFFF AND PUSH2 0x158D PUSH2 0xEBB JUMP JUMPDEST PUSH20 0xFFFFFFFFFFFFFFFFFFFFFFFFFFFFFFFFFFFFFFFF AND EQ PUSH2 0x15EC JUMPI PUSH2 0x15B0 PUSH2 0x1539 JUMP JUMPDEST PUSH1 0x40 MLOAD PUSH32 0x118CDAA700000000000000000000000000000000000000000000000000000000 DUP2 MSTORE PUSH1 0x4 ADD PUSH2 0x15E3 SWAP2 SWAP1 PUSH2 0x2E21 JUMP JUMPDEST PUSH1 0x40 MLOAD DUP1 SWAP2 SUB SWAP1 REVERT JUMPDEST JUMP JUMPDEST PUSH2 0x15F6 PUSH2 0x1FAF JUMP JUMPDEST PUSH0 PUSH1 0xB PUSH0 PUSH2 0x100 EXP DUP2 SLOAD DUP2 PUSH1 0xFF MUL NOT AND SWAP1 DUP4 ISZERO ISZERO MUL OR SWAP1 SSTORE POP PUSH32 0x5DB9EE0A495BF2E6FF9C91A7834C1BA4FDD244A5E8AA4E537BD38AEAE4B073AA PUSH2 0x1638 PUSH2 0x1539 JUMP JUMPDEST PUSH1 0x40 MLOAD PUSH2 0x1645 SWAP2 SWAP1 PUSH2 0x2E21 JUMP JUMPDEST PUSH1 0x40 MLOAD DUP1 SWAP2 SUB SWAP1 LOG1 JUMP JUMPDEST PUSH2 0x1668 DUP3 DUP3 PUSH1 0x40 MLOAD DUP1 PUSH1 0x20 ADD PUSH1 0x40 MSTORE DUP1 PUSH0 DUP2 MSTORE POP PUSH2 0x1FEF JUMP JUMPDEST POP POP JUMP JUMPDEST PUSH0 PUSH1 0xB PUSH1 0x1 SWAP1 SLOAD SWAP1 PUSH2 0x100 EXP SWAP1 DIV PUSH20 0xFFFFFFFFFFFFFFFFFFFFFFFFFFFFFFFFFFFFFFFF AND SWAP1 POP DUP2 PUSH1 0xB PUSH1 0x1 PUSH2 0x100 EXP DUP2 SLOAD DUP2 PUSH20 0xFFFFFFFFFFFFFFFFFFFFFFFFFFFFFFFFFFFFFFFF MUL NOT AND SWAP1 DUP4 PUSH20 0xFFFFFFFFFFFFFFFFFFFFFFFFFFFFFFFFFFFFFFFF AND MUL OR SWAP1 SSTORE POP DUP2 PUSH20 0xFFFFFFFFFFFFFFFFFFFFFFFFFFFFFFFFFFFFFFFF AND DUP2 PUSH20 0xFFFFFFFFFFFFFFFFFFFFFFFFFFFFFFFFFFFFFFFF AND PUSH32 0x8BE0079C531659141344CD1FD0A4F28419497F9722A3DAAFE3B4186F6B6457E0 PUSH1 0x40 MLOAD PUSH1 0x40 MLOAD DUP1 SWAP2 SUB SWAP1 LOG3 POP POP JUMP JUMPDEST PUSH2 0x1739 PUSH2 0x200A JUMP JUMPDEST PUSH1 0x1 PUSH1 0xB PUSH0 PUSH2 0x100 EXP DUP2 SLOAD DUP2 PUSH1 0xFF MUL NOT AND SWAP1 DUP4 ISZERO ISZERO MUL OR SWAP1 SSTORE POP PUSH32 0x62E78CEA01BEE320CD4E420270B5EA74000D11B0C9F74754EBDBFC544B05A258 PUSH2 0x177C PUSH2 0x1539 JUMP JUMPDEST PUSH1 0x40 MLOAD PUSH2 0x1789 SWAP2 SWAP1 PUSH2 0x2E21 JUMP JUMPDEST PUSH1 0x40 MLOAD DUP1 SWAP2 SUB SWAP1 LOG1 JUMP JUMPDEST PUSH0 PUSH20 0xFFFFFFFFFFFFFFFFFFFFFFFFFFFFFFFFFFFFFFFF AND DUP3 PUSH20 0xFFFFFFFFFFFFFFFFFFFFFFFFFFFFFFFFFFFFFFFF AND SUB PUSH2 0x1803 JUMPI DUP2 PUSH1 0x40 MLOAD PUSH32 0x5B08BA1800000000000000000000000000000000000000000000000000000000 DUP2 MSTORE PUSH1 0x4 ADD PUSH2 0x17FA SWAP2 SWAP1 PUSH2 0x2E21 JUMP JUMPDEST PUSH1 0x40 MLOAD DUP1 SWAP2 SUB SWAP1 REVERT JUMPDEST DUP1 PUSH1 0x5 PUSH0 DUP6 PUSH20 0xFFFFFFFFFFFFFFFFFFFFFFFFFFFFFFFFFFFFFFFF AND PUSH20 0xFFFFFFFFFFFFFFFFFFFFFFFFFFFFFFFFFFFFFFFF AND DUP2 MSTORE PUSH1 0x20 ADD SWAP1 DUP2 MSTORE PUSH1 0x20 ADD PUSH0 KECCAK256 PUSH0 DUP5 PUSH20 0xFFFFFFFFFFFFFFFFFFFFFFFFFFFFFFFFFFFFFFFF AND PUSH20 0xFFFFFFFFFFFFFFFFFFFFFFFFFFFFFFFFFFFFFFFF AND DUP2 MSTORE PUSH1 0x20 ADD SWAP1 DUP2 MSTORE PUSH1 0x20 ADD PUSH0 KECCAK256 PUSH0 PUSH2 0x100 EXP DUP2 SLOAD DUP2 PUSH1 0xFF MUL NOT AND SWAP1 DUP4 ISZERO ISZERO MUL OR SWAP1 SSTORE POP DUP2 PUSH20 0xFFFFFFFFFFFFFFFFFFFFFFFFFFFFFFFFFFFFFFFF AND DUP4 PUSH20 0xFFFFFFFFFFFFFFFFFFFFFFFFFFFFFFFFFFFFFFFF AND PUSH32 0x17307EAB39AB6107E8899845AD3D59BD9653F200F220920489CA2B5937696C31 DUP4 PUSH1 0x40 MLOAD PUSH2 0x18EF SWAP2 SWAP1 PUSH2 0x2D6B JUMP JUMPDEST PUSH1 0x40 MLOAD DUP1 SWAP2 SUB SWAP1 LOG3 POP POP POP JUMP JUMPDEST PUSH0 DUP4 PUSH20 0xFFFFFFFFFFFFFFFFFFFFFFFFFFFFFFFFFFFFFFFF AND EXTCODESIZE GT ISZERO PUSH2 0x1AA8 JUMPI DUP3 PUSH20 0xFFFFFFFFFFFFFFFFFFFFFFFFFFFFFFFFFFFFFFFF AND PUSH4 0x150B7A02 PUSH2 0x193F PUSH2 0x1539 JUMP JUMPDEST DUP7 DUP6 DUP6 PUSH1 0x40 MLOAD DUP6 PUSH4 0xFFFFFFFF AND PUSH1 0xE0 SHL DUP2 MSTORE PUSH1 0x4 ADD PUSH2 0x1961 SWAP5 SWAP4 SWAP3 SWAP2 SWAP1 PUSH2 0x394A JUMP JUMPDEST PUSH1 0x20 PUSH1 0x40 MLOAD DUP1 DUP4 SUB DUP2 PUSH0 DUP8 GAS CALL SWAP3 POP POP POP DUP1 ISZERO PUSH2 0x199C JUMPI POP PUSH1 0x40 MLOAD RETURNDATASIZE PUSH1 0x1F NOT PUSH1 0x1F DUP3 ADD AND DUP3 ADD DUP1 PUSH1 0x40 MSTORE POP DUP2 ADD SWAP1 PUSH2 0x1999 SWAP2 SWAP1 PUSH2 0x39A8 JUMP JUMPDEST PUSH1 0x1 JUMPDEST PUSH2 0x1A1D JUMPI RETURNDATASIZE DUP1 PUSH0 DUP2 EQ PUSH2 0x19CA JUMPI PUSH1 0x40 MLOAD SWAP2 POP PUSH1 0x1F NOT PUSH1 0x3F RETURNDATASIZE ADD AND DUP3 ADD PUSH1 0x40 MSTORE RETURNDATASIZE DUP3 MSTORE RETURNDATASIZE PUSH0 PUSH1 0x20 DUP5 ADD RETURNDATACOPY PUSH2 0x19CF JUMP JUMPDEST PUSH1 0x60 SWAP2 POP JUMPDEST POP PUSH0 DUP2 MLOAD SUB PUSH2 0x1A15 JUMPI DUP4 PUSH1 0x40 MLOAD PUSH32 0x64A0AE9200000000000000000000000000000000000000000000000000000000 DUP2 MSTORE PUSH1 0x4 ADD PUSH2 0x1A0C SWAP2 SWAP1 PUSH2 0x2E21 JUMP JUMPDEST PUSH1 0x40 MLOAD DUP1 SWAP2 SUB SWAP1 REVERT JUMPDEST DUP1 MLOAD DUP2 PUSH1 0x20 ADD REVERT JUMPDEST PUSH4 0x150B7A02 PUSH1 0xE0 SHL PUSH28 0xFFFFFFFFFFFFFFFFFFFFFFFFFFFFFFFFFFFFFFFFFFFFFFFFFFFFFFFF NOT AND DUP2 PUSH28 0xFFFFFFFFFFFFFFFFFFFFFFFFFFFFFFFFFFFFFFFFFFFFFFFFFFFFFFFF NOT AND EQ PUSH2 0x1AA6 JUMPI DUP4 PUSH1 0x40 MLOAD PUSH32 0x64A0AE9200000000000000000000000000000000000000000000000000000000 DUP2 MSTORE PUSH1 0x4 ADD PUSH2 0x1A9D SWAP2 SWAP1 PUSH2 0x2E21 JUMP JUMPDEST PUSH1 0x40 MLOAD DUP1 SWAP2 SUB SWAP1 REVERT JUMPDEST POP JUMPDEST POP POP POP POP JUMP JUMPDEST PUSH1 0x60 PUSH2 0x1AB9 DUP3 PUSH2 0x147A JUMP JUMPDEST POP PUSH0 PUSH1 0xA PUSH0 DUP5 DUP2 MSTORE PUSH1 0x20 ADD SWAP1 DUP2 MSTORE PUSH1 0x20 ADD PUSH0 KECCAK256 DUP1 SLOAD PUSH2 0x1AD7 SWAP1 PUSH2 0x338A JUMP JUMPDEST DUP1 PUSH1 0x1F ADD PUSH1 0x20 DUP1 SWAP2 DIV MUL PUSH1 0x20 ADD PUSH1 0x40 MLOAD SWAP1 DUP2 ADD PUSH1 0x40 MSTORE DUP1 SWAP3 SWAP2 SWAP1 DUP2 DUP2 MSTORE PUSH1 0x20 ADD DUP3 DUP1 SLOAD PUSH2 0x1B03 SWAP1 PUSH2 0x338A JUMP JUMPDEST DUP1 ISZERO PUSH2 0x1B4E JUMPI DUP1 PUSH1 0x1F LT PUSH2 0x1B25 JUMPI PUSH2 0x100 DUP1 DUP4 SLOAD DIV MUL DUP4 MSTORE SWAP2 PUSH1 0x20 ADD SWAP2 PUSH2 0x1B4E JUMP JUMPDEST DUP3 ADD SWAP2 SWAP1 PUSH0 MSTORE PUSH1 0x20 PUSH0 KECCAK256 SWAP1 JUMPDEST DUP2 SLOAD DUP2 MSTORE SWAP1 PUSH1 0x1 ADD SWAP1 PUSH1 0x20 ADD DUP1 DUP4 GT PUSH2 0x1B31 JUMPI DUP3 SWAP1 SUB PUSH1 0x1F AND DUP3 ADD SWAP2 JUMPDEST POP POP POP POP POP SWAP1 POP PUSH0 PUSH2 0x1B5E PUSH2 0x204B JUMP JUMPDEST SWAP1 POP PUSH0 DUP2 MLOAD SUB PUSH2 0x1B72 JUMPI DUP2 SWAP3 POP POP POP PUSH2 0x1BB4 JUMP JUMPDEST PUSH0 DUP3 MLOAD GT ISZERO PUSH2 0x1BA6 JUMPI DUP1 DUP3 PUSH1 0x40 MLOAD PUSH1 0x20 ADD PUSH2 0x1B8E SWAP3 SWAP2 SWAP1 PUSH2 0x3A0D JUMP JUMPDEST PUSH1 0x40 MLOAD PUSH1 0x20 DUP2 DUP4 SUB SUB DUP2 MSTORE SWAP1 PUSH1 0x40 MSTORE SWAP3 POP POP POP PUSH2 0x1BB4 JUMP JUMPDEST PUSH2 0x1BAF DUP5 PUSH2 0x2088 JUMP JUMPDEST SWAP3 POP POP POP JUMPDEST SWAP2 SWAP1 POP JUMP JUMPDEST PUSH0 PUSH20 0xFFFFFFFFFFFFFFFFFFFFFFFFFFFFFFFFFFFFFFFF AND DUP3 PUSH20 0xFFFFFFFFFFFFFFFFFFFFFFFFFFFFFFFFFFFFFFFF AND SUB PUSH2 0x1C29 JUMPI PUSH0 PUSH1 0x40 MLOAD PUSH32 0x64A0AE9200000000000000000000000000000000000000000000000000000000 DUP2 MSTORE PUSH1 0x4 ADD PUSH2 0x1C20 SWAP2 SWAP1 PUSH2 0x2E21 JUMP JUMPDEST PUSH1 0x40 MLOAD DUP1 SWAP2 SUB SWAP1 REVERT JUMPDEST PUSH0 PUSH2 0x1C35 DUP4 DUP4 PUSH0 PUSH2 0x1552 JUMP JUMPDEST SWAP1 POP PUSH0 PUSH20 0xFFFFFFFFFFFFFFFFFFFFFFFFFFFFFFFFFFFFFFFF AND DUP2 PUSH20 0xFFFFFFFFFFFFFFFFFFFFFFFFFFFFFFFFFFFFFFFF AND SUB PUSH2 0x1CA7 JUMPI DUP2 PUSH1 0x40 MLOAD PUSH32 0x7E27328900000000000000000000000000000000000000000000000000000000 DUP2 MSTORE PUSH1 0x4 ADD PUSH2 0x1C9E SWAP2 SWAP1 PUSH2 0x2F41 JUMP JUMPDEST PUSH1 0x40 MLOAD DUP1 SWAP2 SUB SWAP1 REVERT JUMPDEST DUP4 PUSH20 0xFFFFFFFFFFFFFFFFFFFFFFFFFFFFFFFFFFFFFFFF AND DUP2 PUSH20 0xFFFFFFFFFFFFFFFFFFFFFFFFFFFFFFFFFFFFFFFF AND EQ PUSH2 0x1D1B JUMPI DUP4 DUP3 DUP3 PUSH1 0x40 MLOAD PUSH32 0x64283D7B00000000000000000000000000000000000000000000000000000000 DUP2 MSTORE PUSH1 0x4 ADD PUSH2 0x1D12 SWAP4 SWAP3 SWAP2 SWAP1 PUSH2 0x368E JUMP JUMPDEST PUSH1 0x40 MLOAD DUP1 SWAP2 SUB SWAP1 REVERT JUMPDEST POP POP POP POP JUMP JUMPDEST PUSH0 PUSH32 0x780E9D6300000000000000000000000000000000000000000000000000000000 PUSH28 0xFFFFFFFFFFFFFFFFFFFFFFFFFFFFFFFFFFFFFFFFFFFFFFFFFFFFFFFF NOT AND DUP3 PUSH28 0xFFFFFFFFFFFFFFFFFFFFFFFFFFFFFFFFFFFFFFFFFFFFFFFFFFFFFFFF NOT AND EQ DUP1 PUSH2 0x1D93 JUMPI POP PUSH2 0x1D92 DUP3 PUSH2 0x20EE JUMP JUMPDEST JUMPDEST SWAP1 POP SWAP2 SWAP1 POP JUMP JUMPDEST PUSH0 PUSH1 0x2 PUSH0 DUP4 DUP2 MSTORE PUSH1 0x20 ADD SWAP1 DUP2 MSTORE PUSH1 0x20 ADD PUSH0 KECCAK256 PUSH0 SWAP1 SLOAD SWAP1 PUSH2 0x100 EXP SWAP1 DIV PUSH20 0xFFFFFFFFFFFFFFFFFFFFFFFFFFFFFFFFFFFFFFFF AND SWAP1 POP SWAP2 SWAP1 POP JUMP JUMPDEST DUP1 DUP1 PUSH2 0x1E0B JUMPI POP PUSH0 PUSH20 0xFFFFFFFFFFFFFFFFFFFFFFFFFFFFFFFFFFFFFFFF AND DUP3 PUSH20 0xFFFFFFFFFFFFFFFFFFFFFFFFFFFFFFFFFFFFFFFF AND EQ ISZERO JUMPDEST ISZERO PUSH2 0x1F3D JUMPI PUSH0 PUSH2 0x1E1A DUP5 PUSH2 0x147A JUMP JUMPDEST SWAP1 POP PUSH0 PUSH20 0xFFFFFFFFFFFFFFFFFFFFFFFFFFFFFFFFFFFFFFFF AND DUP4 PUSH20 0xFFFFFFFFFFFFFFFFFFFFFFFFFFFFFFFFFFFFFFFF AND EQ ISZERO DUP1 ISZERO PUSH2 0x1E84 JUMPI POP DUP3 PUSH20 0xFFFFFFFFFFFFFFFFFFFFFFFFFFFFFFFFFFFFFFFF AND DUP2 PUSH20 0xFFFFFFFFFFFFFFFFFFFFFFFFFFFFFFFFFFFFFFFF AND EQ ISZERO JUMPDEST DUP1 ISZERO PUSH2 0x1E97 JUMPI POP PUSH2 0x1E95 DUP2 DUP5 PUSH2 0x1308 JUMP JUMPDEST ISZERO JUMPDEST ISZERO PUSH2 0x1ED9 JUMPI DUP3 PUSH1 0x40 MLOAD PUSH32 0xA9FBF51F00000000000000000000000000000000000000000000000000000000 DUP2 MSTORE PUSH1 0x4 ADD PUSH2 0x1ED0 SWAP2 SWAP1 PUSH2 0x2E21 JUMP JUMPDEST PUSH1 0x40 MLOAD DUP1 SWAP2 SUB SWAP1 REVERT JUMPDEST DUP2 ISZERO PUSH2 0x1F3B JUMPI DUP4 DUP6 PUSH20 0xFFFFFFFFFFFFFFFFFFFFFFFFFFFFFFFFFFFFFFFF AND DUP3 PUSH20 0xFFFFFFFFFFFFFFFFFFFFFFFFFFFFFFFFFFFFFFFF AND PUSH32 0x8C5BE1E5EBEC7D5BD14F71427D1E84F3DD0314C0F7B2291E5B200AC8C7C3B925 PUSH1 0x40 MLOAD PUSH1 0x40 MLOAD DUP1 SWAP2 SUB SWAP1 LOG4 JUMPDEST POP JUMPDEST DUP4 PUSH1 0x4 PUSH0 DUP6 DUP2 MSTORE PUSH1 0x20 ADD SWAP1 DUP2 MSTORE PUSH1 0x20 ADD PUSH0 KECCAK256 PUSH0 PUSH2 0x100 EXP DUP2 SLOAD DUP2 PUSH20 0xFFFFFFFFFFFFFFFFFFFFFFFFFFFFFFFFFFFFFFFF MUL NOT AND SWAP1 DUP4 PUSH20 0xFFFFFFFFFFFFFFFFFFFFFFFFFFFFFFFFFFFFFFFF AND MUL OR SWAP1 SSTORE POP POP POP POP POP JUMP JUMPDEST PUSH0 PUSH2 0x1F9B PUSH2 0x200A JUMP JUMPDEST PUSH2 0x1FA6 DUP5 DUP5 DUP5 PUSH2 0x21CF JUMP JUMPDEST SWAP1 POP SWAP4 SWAP3 POP POP POP JUMP JUMPDEST PUSH2 0x1FB7 PUSH2 0xC36 JUMP JUMPDEST PUSH2 0x1FED JUMPI PUSH1 0x40 MLOAD PUSH32 0x8DFC202B00000000000000000000000000000000000000000000000000000000 DUP2 MSTORE PUSH1 0x4 ADD PUSH1 0x40 MLOAD DUP1 SWAP2 SUB SWAP1 REVERT JUMPDEST JUMP JUMPDEST PUSH2 0x1FF9 DUP4 DUP4 PUSH2 0x22E9 JUMP JUMPDEST PUSH2 0x2005 PUSH0 DUP5 DUP5 DUP5 PUSH2 0x18FC JUMP JUMPDEST POP POP POP JUMP JUMPDEST PUSH2 0x2012 PUSH2 0xC36 JUMP JUMPDEST ISZERO PUSH2 0x2049 JUMPI PUSH1 0x40 MLOAD PUSH32 0xD93C066500000000000000000000000000000000000000000000000000000000 DUP2 MSTORE PUSH1 0x4 ADD PUSH1 0x40 MLOAD DUP1 SWAP2 SUB SWAP1 REVERT JUMPDEST JUMP JUMPDEST PUSH1 0x60 PUSH1 0x40 MLOAD DUP1 PUSH1 0x40 ADD PUSH1 0x40 MSTORE DUP1 PUSH1 0x16 DUP2 MSTORE PUSH1 0x20 ADD PUSH32 0x68747470733A2F2F636C617965642E6F6E6C696E652F00000000000000000000 DUP2 MSTORE POP SWAP1 POP SWAP1 JUMP JUMPDEST PUSH1 0x60 PUSH2 0x2093 DUP3 PUSH2 0x147A JUMP JUMPDEST POP PUSH0 PUSH2 0x209D PUSH2 0x204B JUMP JUMPDEST SWAP1 POP PUSH0 DUP2 MLOAD GT PUSH2 0x20BB JUMPI PUSH1 0x40 MLOAD DUP1 PUSH1 0x20 ADD PUSH1 0x40 MSTORE DUP1 PUSH0 DUP2 MSTORE POP PUSH2 0x20E6 JUMP JUMPDEST DUP1 PUSH2 0x20C5 DUP5 PUSH2 0x23DC JUMP JUMPDEST PUSH1 0x40 MLOAD PUSH1 0x20 ADD PUSH2 0x20D6 SWAP3 SWAP2 SWAP1 PUSH2 0x3A0D JUMP JUMPDEST PUSH1 0x40 MLOAD PUSH1 0x20 DUP2 DUP4 SUB SUB DUP2 MSTORE SWAP1 PUSH1 0x40 MSTORE JUMPDEST SWAP2 POP POP SWAP2 SWAP1 POP JUMP JUMPDEST PUSH0 PUSH32 0x80AC58CD00000000000000000000000000000000000000000000000000000000 PUSH28 0xFFFFFFFFFFFFFFFFFFFFFFFFFFFFFFFFFFFFFFFFFFFFFFFFFFFFFFFF NOT AND DUP3 PUSH28 0xFFFFFFFFFFFFFFFFFFFFFFFFFFFFFFFFFFFFFFFFFFFFFFFFFFFFFFFF NOT AND EQ DUP1 PUSH2 0x21B8 JUMPI POP PUSH32 0x5B5E139F00000000000000000000000000000000000000000000000000000000 PUSH28 0xFFFFFFFFFFFFFFFFFFFFFFFFFFFFFFFFFFFFFFFFFFFFFFFFFFFFFFFF NOT AND DUP3 PUSH28 0xFFFFFFFFFFFFFFFFFFFFFFFFFFFFFFFFFFFFFFFFFFFFFFFFFFFFFFFF NOT AND EQ JUMPDEST DUP1 PUSH2 0x21C8 JUMPI POP PUSH2 0x21C7 DUP3 PUSH2 0x24A6 JUMP JUMPDEST JUMPDEST SWAP1 POP SWAP2 SWAP1 POP JUMP JUMPDEST PUSH0 DUP1 PUSH2 0x21DC DUP6 DUP6 DUP6 PUSH2 0x250F JUMP JUMPDEST SWAP1 POP PUSH0 PUSH20 0xFFFFFFFFFFFFFFFFFFFFFFFFFFFFFFFFFFFFFFFF AND DUP2 PUSH20 0xFFFFFFFFFFFFFFFFFFFFFFFFFFFFFFFFFFFFFFFF AND SUB PUSH2 0x221F JUMPI PUSH2 0x221A DUP5 PUSH2 0x271A JUMP JUMPDEST PUSH2 0x225E JUMP JUMPDEST DUP5 PUSH20 0xFFFFFFFFFFFFFFFFFFFFFFFFFFFFFFFFFFFFFFFF AND DUP2 PUSH20 0xFFFFFFFFFFFFFFFFFFFFFFFFFFFFFFFFFFFFFFFF AND EQ PUSH2 0x225D JUMPI PUSH2 0x225C DUP2 DUP6 PUSH2 0x275E JUMP JUMPDEST JUMPDEST JUMPDEST PUSH0 PUSH20 0xFFFFFFFFFFFFFFFFFFFFFFFFFFFFFFFFFFFFFFFF AND DUP6 PUSH20 0xFFFFFFFFFFFFFFFFFFFFFFFFFFFFFFFFFFFFFFFF AND SUB PUSH2 0x229F JUMPI PUSH2 0x229A DUP5 PUSH2 0x28A8 JUMP JUMPDEST PUSH2 0x22DE JUMP JUMPDEST DUP5 PUSH20 0xFFFFFFFFFFFFFFFFFFFFFFFFFFFFFFFFFFFFFFFF AND DUP2 PUSH20 0xFFFFFFFFFFFFFFFFFFFFFFFFFFFFFFFFFFFFFFFF AND EQ PUSH2 0x22DD JUMPI PUSH2 0x22DC DUP6 DUP6 PUSH2 0x2968 JUMP JUMPDEST JUMPDEST JUMPDEST DUP1 SWAP2 POP POP SWAP4 SWAP3 POP POP POP JUMP JUMPDEST PUSH0 PUSH20 0xFFFFFFFFFFFFFFFFFFFFFFFFFFFFFFFFFFFFFFFF AND DUP3 PUSH20 0xFFFFFFFFFFFFFFFFFFFFFFFFFFFFFFFFFFFFFFFF AND SUB PUSH2 0x2359 JUMPI PUSH0 PUSH1 0x40 MLOAD PUSH32 0x64A0AE9200000000000000000000000000000000000000000000000000000000 DUP2 MSTORE PUSH1 0x4 ADD PUSH2 0x2350 SWAP2 SWAP1 PUSH2 0x2E21 JUMP JUMPDEST PUSH1 0x40 MLOAD DUP1 SWAP2 SUB SWAP1 REVERT JUMPDEST PUSH0 PUSH2 0x2365 DUP4 DUP4 PUSH0 PUSH2 0x1552 JUMP JUMPDEST SWAP1 POP PUSH0 PUSH20 0xFFFFFFFFFFFFFFFFFFFFFFFFFFFFFFFFFFFFFFFF AND DUP2 PUSH20 0xFFFFFFFFFFFFFFFFFFFFFFFFFFFFFFFFFFFFFFFF AND EQ PUSH2 0x23D7 JUMPI PUSH0 PUSH1 0x40 MLOAD PUSH32 0x73C6AC6E00000000000000000000000000000000000000000000000000000000 DUP2 MSTORE PUSH1 0x4 ADD PUSH2 0x23CE SWAP2 SWAP1 PUSH2 0x2E21 JUMP JUMPDEST PUSH1 0x40 MLOAD DUP1 SWAP2 SUB SWAP1 REVERT JUMPDEST POP POP POP JUMP JUMPDEST PUSH1 0x60 PUSH0 PUSH1 0x1 PUSH2 0x23EA DUP5 PUSH2 0x29EC JUMP JUMPDEST ADD SWAP1 POP PUSH0 DUP2 PUSH8 0xFFFFFFFFFFFFFFFF DUP2 GT ISZERO PUSH2 0x2408 JUMPI PUSH2 0x2407 PUSH2 0x2F62 JUMP JUMPDEST JUMPDEST PUSH1 0x40 MLOAD SWAP1 DUP1 DUP3 MSTORE DUP1 PUSH1 0x1F ADD PUSH1 0x1F NOT AND PUSH1 0x20 ADD DUP3 ADD PUSH1 0x40 MSTORE DUP1 ISZERO PUSH2 0x243A JUMPI DUP2 PUSH1 0x20 ADD PUSH1 0x1 DUP3 MUL DUP1 CALLDATASIZE DUP4 CALLDATACOPY DUP1 DUP3 ADD SWAP2 POP POP SWAP1 POP JUMPDEST POP SWAP1 POP PUSH0 DUP3 PUSH1 0x20 ADD DUP3 ADD SWAP1 POP JUMPDEST PUSH1 0x1 ISZERO PUSH2 0x249B JUMPI DUP1 DUP1 PUSH1 0x1 SWAP1 SUB SWAP2 POP POP PUSH32 0x3031323334353637383961626364656600000000000000000000000000000000 PUSH1 0xA DUP7 MOD BYTE DUP2 MSTORE8 PUSH1 0xA DUP6 DUP2 PUSH2 0x2490 JUMPI PUSH2 0x248F PUSH2 0x3A30 JUMP JUMPDEST JUMPDEST DIV SWAP5 POP PUSH0 DUP6 SUB PUSH2 0x2447 JUMPI JUMPDEST DUP2 SWAP4 POP POP POP POP SWAP2 SWAP1 POP JUMP JUMPDEST PUSH0 PUSH32 0x1FFC9A700000000000000000000000000000000000000000000000000000000 PUSH28 0xFFFFFFFFFFFFFFFFFFFFFFFFFFFFFFFFFFFFFFFFFFFFFFFFFFFFFFFF NOT AND DUP3 PUSH28 0xFFFFFFFFFFFFFFFFFFFFFFFFFFFFFFFFFFFFFFFFFFFFFFFFFFFFFFFF NOT AND EQ SWAP1 POP SWAP2 SWAP1 POP JUMP JUMPDEST PUSH0 DUP1 PUSH2 0x251A DUP5 PUSH2 0x1D9A JUMP JUMPDEST SWAP1 POP PUSH0 PUSH20 0xFFFFFFFFFFFFFFFFFFFFFFFFFFFFFFFFFFFFFFFF AND DUP4 PUSH20 0xFFFFFFFFFFFFFFFFFFFFFFFFFFFFFFFFFFFFFFFF AND EQ PUSH2 0x255B JUMPI PUSH2 0x255A DUP2 DUP5 DUP7 PUSH2 0x2B3D JUMP JUMPDEST JUMPDEST PUSH0 PUSH20 0xFFFFFFFFFFFFFFFFFFFFFFFFFFFFFFFFFFFFFFFF AND DUP2 PUSH20 0xFFFFFFFFFFFFFFFFFFFFFFFFFFFFFFFFFFFFFFFF AND EQ PUSH2 0x25E6 JUMPI PUSH2 0x259A PUSH0 DUP6 PUSH0 DUP1 PUSH2 0x1DD3 JUMP JUMPDEST PUSH1 0x1 PUSH1 0x3 PUSH0 DUP4 PUSH20 0xFFFFFFFFFFFFFFFFFFFFFFFFFFFFFFFFFFFFFFFF AND PUSH20 0xFFFFFFFFFFFFFFFFFFFFFFFFFFFFFFFFFFFFFFFF AND DUP2 MSTORE PUSH1 0x20 ADD SWAP1 DUP2 MSTORE PUSH1 0x20 ADD PUSH0 KECCAK256 PUSH0 DUP3 DUP3 SLOAD SUB SWAP3 POP POP DUP2 SWAP1 SSTORE POP JUMPDEST PUSH0 PUSH20 0xFFFFFFFFFFFFFFFFFFFFFFFFFFFFFFFFFFFFFFFF AND DUP6 PUSH20 0xFFFFFFFFFFFFFFFFFFFFFFFFFFFFFFFFFFFFFFFF AND EQ PUSH2 0x2665 JUMPI PUSH1 0x1 PUSH1 0x3 PUSH0 DUP8 PUSH20 0xFFFFFFFFFFFFFFFFFFFFFFFFFFFFFFFFFFFFFFFF AND PUSH20 0xFFFFFFFFFFFFFFFFFFFFFFFFFFFFFFFFFFFFFFFF AND DUP2 MSTORE PUSH1 0x20 ADD SWAP1 DUP2 MSTORE PUSH1 0x20 ADD PUSH0 KECCAK256 PUSH0 DUP3 DUP3 SLOAD ADD SWAP3 POP POP DUP2 SWAP1 SSTORE POP JUMPDEST DUP5 PUSH1 0x2 PUSH0 DUP7 DUP2 MSTORE PUSH1 0x20 ADD SWAP1 DUP2 MSTORE PUSH1 0x20 ADD PUSH0 KECCAK256 PUSH0 PUSH2 0x100 EXP DUP2 SLOAD DUP2 PUSH20 0xFFFFFFFFFFFFFFFFFFFFFFFFFFFFFFFFFFFFFFFF MUL NOT AND SWAP1 DUP4 PUSH20 0xFFFFFFFFFFFFFFFFFFFFFFFFFFFFFFFFFFFFFFFF AND MUL OR SWAP1 SSTORE POP DUP4 DUP6 PUSH20 0xFFFFFFFFFFFFFFFFFFFFFFFFFFFFFFFFFFFFFFFF AND DUP3 PUSH20 0xFFFFFFFFFFFFFFFFFFFFFFFFFFFFFFFFFFFFFFFF AND PUSH32 0xDDF252AD1BE2C89B69C2B068FC378DAA952BA7F163C4A11628F55A4DF523B3EF PUSH1 0x40 MLOAD PUSH1 0x40 MLOAD DUP1 SWAP2 SUB SWAP1 LOG4 DUP1 SWAP2 POP POP SWAP4 SWAP3 POP POP POP JUMP JUMPDEST PUSH1 0x8 DUP1 SLOAD SWAP1 POP PUSH1 0x9 PUSH0 DUP4 DUP2 MSTORE PUSH1 0x20 ADD SWAP1 DUP2 MSTORE PUSH1 0x20 ADD PUSH0 KECCAK256 DUP2 SWAP1 SSTORE POP PUSH1 0x8 DUP2 SWAP1 DUP1 PUSH1 0x1 DUP2 SLOAD ADD DUP1 DUP3 SSTORE DUP1 SWAP2 POP POP PUSH1 0x1 SWAP1 SUB SWAP1 PUSH0 MSTORE PUSH1 0x20 PUSH0 KECCAK256 ADD PUSH0 SWAP1 SWAP2 SWAP1 SWAP2 SWAP1 SWAP2 POP SSTORE POP JUMP JUMPDEST PUSH0 PUSH2 0x2768 DUP4 PUSH2 0xDC0 JUMP JUMPDEST SWAP1 POP PUSH0 PUSH1 0x7 PUSH0 DUP5 DUP2 MSTORE PUSH1 0x20 ADD SWAP1 DUP2 MSTORE PUSH1 0x20 ADD PUSH0 KECCAK256 SLOAD SWAP1 POP DUP2 DUP2 EQ PUSH2 0x283F JUMPI PUSH0 PUSH1 0x6 PUSH0 DUP7 PUSH20 0xFFFFFFFFFFFFFFFFFFFFFFFFFFFFFFFFFFFFFFFF AND PUSH20 0xFFFFFFFFFFFFFFFFFFFFFFFFFFFFFFFFFFFFFFFF AND DUP2 MSTORE PUSH1 0x20 ADD SWAP1 DUP2 MSTORE PUSH1 0x20 ADD PUSH0 KECCAK256 PUSH0 DUP5 DUP2 MSTORE PUSH1 0x20 ADD SWAP1 DUP2 MSTORE PUSH1 0x20 ADD PUSH0 KECCAK256 SLOAD SWAP1 POP DUP1 PUSH1 0x6 PUSH0 DUP8 PUSH20 0xFFFFFFFFFFFFFFFFFFFFFFFFFFFFFFFFFFFFFFFF AND PUSH20 0xFFFFFFFFFFFFFFFFFFFFFFFFFFFFFFFFFFFFFFFF AND DUP2 MSTORE PUSH1 0x20 ADD SWAP1 DUP2 MSTORE PUSH1 0x20 ADD PUSH0 KECCAK256 PUSH0 DUP5 DUP2 MSTORE PUSH1 0x20 ADD SWAP1 DUP2 MSTORE PUSH1 0x20 ADD PUSH0 KECCAK256 DUP2 SWAP1 SSTORE POP DUP2 PUSH1 0x7 PUSH0 DUP4 DUP2 MSTORE PUSH1 0x20 ADD SWAP1 DUP2 MSTORE PUSH1 0x20 ADD PUSH0 KECCAK256 DUP2 SWAP1 SSTORE POP POP JUMPDEST PUSH1 0x7 PUSH0 DUP5 DUP2 MSTORE PUSH1 0x20 ADD SWAP1 DUP2 MSTORE PUSH1 0x20 ADD PUSH0 KECCAK256 PUSH0 SWAP1 SSTORE PUSH1 0x6 PUSH0 DUP6 PUSH20 0xFFFFFFFFFFFFFFFFFFFFFFFFFFFFFFFFFFFFFFFF AND PUSH20 0xFFFFFFFFFFFFFFFFFFFFFFFFFFFFFFFFFFFFFFFF AND DUP2 MSTORE PUSH1 0x20 ADD SWAP1 DUP2 MSTORE PUSH1 0x20 ADD PUSH0 KECCAK256 PUSH0 DUP4 DUP2 MSTORE PUSH1 0x20 ADD SWAP1 DUP2 MSTORE PUSH1 0x20 ADD PUSH0 KECCAK256 PUSH0 SWAP1 SSTORE POP POP POP POP JUMP JUMPDEST PUSH0 PUSH1 0x1 PUSH1 0x8 DUP1 SLOAD SWAP1 POP PUSH2 0x28BB SWAP2 SWAP1 PUSH2 0x3A5D JUMP JUMPDEST SWAP1 POP PUSH0 PUSH1 0x9 PUSH0 DUP5 DUP2 MSTORE PUSH1 0x20 ADD SWAP1 DUP2 MSTORE PUSH1 0x20 ADD PUSH0 KECCAK256 SLOAD SWAP1 POP PUSH0 PUSH1 0x8 DUP4 DUP2 SLOAD DUP2 LT PUSH2 0x28E7 JUMPI PUSH2 0x28E6 PUSH2 0x36EA JUMP JUMPDEST JUMPDEST SWAP1 PUSH0 MSTORE PUSH1 0x20 PUSH0 KECCAK256 ADD SLOAD SWAP1 POP DUP1 PUSH1 0x8 DUP4 DUP2 SLOAD DUP2 LT PUSH2 0x2907 JUMPI PUSH2 0x2906 PUSH2 0x36EA JUMP JUMPDEST JUMPDEST SWAP1 PUSH0 MSTORE PUSH1 0x20 PUSH0 KECCAK256 ADD DUP2 SWAP1 SSTORE POP DUP2 PUSH1 0x9 PUSH0 DUP4 DUP2 MSTORE PUSH1 0x20 ADD SWAP1 DUP2 MSTORE PUSH1 0x20 ADD PUSH0 KECCAK256 DUP2 SWAP1 SSTORE POP PUSH1 0x9 PUSH0 DUP6 DUP2 MSTORE PUSH1 0x20 ADD SWAP1 DUP2 MSTORE PUSH1 0x20 ADD PUSH0 KECCAK256 PUSH0 SWAP1 SSTORE PUSH1 0x8 DUP1 SLOAD DUP1 PUSH2 0x294F JUMPI PUSH2 0x294E PUSH2 0x3A90 JUMP JUMPDEST JUMPDEST PUSH1 0x1 SWAP1 SUB DUP2 DUP2 SWAP1 PUSH0 MSTORE PUSH1 0x20 PUSH0 KECCAK256 ADD PUSH0 SWAP1 SSTORE SWAP1 SSTORE POP POP POP POP JUMP JUMPDEST PUSH0 PUSH1 0x1 PUSH2 0x2974 DUP5 PUSH2 0xDC0 JUMP JUMPDEST PUSH2 0x297E SWAP2 SWAP1 PUSH2 0x3A5D JUMP JUMPDEST SWAP1 POP DUP2 PUSH1 0x6 PUSH0 DUP6 PUSH20 0xFFFFFFFFFFFFFFFFFFFFFFFFFFFFFFFFFFFFFFFF AND PUSH20 0xFFFFFFFFFFFFFFFFFFFFFFFFFFFFFFFFFFFFFFFF AND DUP2 MSTORE PUSH1 0x20 ADD SWAP1 DUP2 MSTORE PUSH1 0x20 ADD PUSH0 KECCAK256 PUSH0 DUP4 DUP2 MSTORE PUSH1 0x20 ADD SWAP1 DUP2 MSTORE PUSH1 0x20 ADD PUSH0 KECCAK256 DUP2 SWAP1 SSTORE POP DUP1 PUSH1 0x7 PUSH0 DUP5 DUP2 MSTORE PUSH1 0x20 ADD SWAP1 DUP2 MSTORE PUSH1 0x20 ADD PUSH0 KECCAK256 DUP2 SWAP1 SSTORE POP POP POP POP JUMP JUMPDEST PUSH0 DUP1 PUSH0 SWAP1 POP PUSH27 0x184F03E93FF9F4DAA797ED6E38ED64BF6A1F010000000000000000 DUP4 LT PUSH2 0x2A48 JUMPI PUSH27 0x184F03E93FF9F4DAA797ED6E38ED64BF6A1F010000000000000000 DUP4 DUP2 PUSH2 0x2A3E JUMPI PUSH2 0x2A3D PUSH2 0x3A30 JUMP JUMPDEST JUMPDEST DIV SWAP3 POP PUSH1 0x40 DUP2 ADD SWAP1 POP JUMPDEST PUSH14 0x4EE2D6D415B85ACEF8100000000 DUP4 LT PUSH2 0x2A85 JUMPI PUSH14 0x4EE2D6D415B85ACEF8100000000 DUP4 DUP2 PUSH2 0x2A7B JUMPI PUSH2 0x2A7A PUSH2 0x3A30 JUMP JUMPDEST JUMPDEST DIV SWAP3 POP PUSH1 0x20 DUP2 ADD SWAP1 POP JUMPDEST PUSH7 0x2386F26FC10000 DUP4 LT PUSH2 0x2AB4 JUMPI PUSH7 0x2386F26FC10000 DUP4 DUP2 PUSH2 0x2AAA JUMPI PUSH2 0x2AA9 PUSH2 0x3A30 JUMP JUMPDEST JUMPDEST DIV SWAP3 POP PUSH1 0x10 DUP2 ADD SWAP1 POP JUMPDEST PUSH4 0x5F5E100 DUP4 LT PUSH2 0x2ADD JUMPI PUSH4 0x5F5E100 DUP4 DUP2 PUSH2 0x2AD3 JUMPI PUSH2 0x2AD2 PUSH2 0x3A30 JUMP JUMPDEST JUMPDEST DIV SWAP3 POP PUSH1 0x8 DUP2 ADD SWAP1 POP JUMPDEST PUSH2 0x2710 DUP4 LT PUSH2 0x2B02 JUMPI PUSH2 0x2710 DUP4 DUP2 PUSH2 0x2AF8 JUMPI PUSH2 0x2AF7 PUSH2 0x3A30 JUMP JUMPDEST JUMPDEST DIV SWAP3 POP PUSH1 0x4 DUP2 ADD SWAP1 POP JUMPDEST PUSH1 0x64 DUP4 LT PUSH2 0x2B25 JUMPI PUSH1 0x64 DUP4 DUP2 PUSH2 0x2B1B JUMPI PUSH2 0x2B1A PUSH2 0x3A30 JUMP JUMPDEST JUMPDEST DIV SWAP3 POP PUSH1 0x2 DUP2 ADD SWAP1 POP JUMPDEST PUSH1 0xA DUP4 LT PUSH2 0x2B34 JUMPI PUSH1 0x1 DUP2 ADD SWAP1 POP JUMPDEST DUP1 SWAP2 POP POP SWAP2 SWAP1 POP JUMP JUMPDEST PUSH2 0x2B48 DUP4 DUP4 DUP4 PUSH2 0x2C00 JUMP JUMPDEST PUSH2 0x2BFB JUMPI PUSH0 PUSH20 0xFFFFFFFFFFFFFFFFFFFFFFFFFFFFFFFFFFFFFFFF AND DUP4 PUSH20 0xFFFFFFFFFFFFFFFFFFFFFFFFFFFFFFFFFFFFFFFF AND SUB PUSH2 0x2BBC JUMPI DUP1 PUSH1 0x40 MLOAD PUSH32 0x7E27328900000000000000000000000000000000000000000000000000000000 DUP2 MSTORE PUSH1 0x4 ADD PUSH2 0x2BB3 SWAP2 SWAP1 PUSH2 0x2F41 JUMP JUMPDEST PUSH1 0x40 MLOAD DUP1 SWAP2 SUB SWAP1 REVERT JUMPDEST DUP2 DUP2 PUSH1 0x40 MLOAD PUSH32 0x177E802F00000000000000000000000000000000000000000000000000000000 DUP2 MSTORE PUSH1 0x4 ADD PUSH2 0x2BF2 SWAP3 SWAP2 SWAP1 PUSH2 0x36C3 JUMP JUMPDEST PUSH1 0x40 MLOAD DUP1 SWAP2 SUB SWAP1 REVERT JUMPDEST POP POP POP JUMP JUMPDEST PUSH0 DUP1 PUSH20 0xFFFFFFFFFFFFFFFFFFFFFFFFFFFFFFFFFFFFFFFF AND DUP4 PUSH20 0xFFFFFFFFFFFFFFFFFFFFFFFFFFFFFFFFFFFFFFFF AND EQ ISZERO DUP1 ISZERO PUSH2 0x2CB7 JUMPI POP DUP3 PUSH20 0xFFFFFFFFFFFFFFFFFFFFFFFFFFFFFFFFFFFFFFFF AND DUP5 PUSH20 0xFFFFFFFFFFFFFFFFFFFFFFFFFFFFFFFFFFFFFFFF AND EQ DUP1 PUSH2 0x2C78 JUMPI POP PUSH2 0x2C77 DUP5 DUP5 PUSH2 0x1308 JUMP JUMPDEST JUMPDEST DUP1 PUSH2 0x2CB6 JUMPI POP DUP3 PUSH20 0xFFFFFFFFFFFFFFFFFFFFFFFFFFFFFFFFFFFFFFFF AND PUSH2 0x2C9E DUP4 PUSH2 0x1500 JUMP JUMPDEST PUSH20 0xFFFFFFFFFFFFFFFFFFFFFFFFFFFFFFFFFFFFFFFF AND EQ JUMPDEST JUMPDEST SWAP1 POP SWAP4 SWAP3 POP POP POP JUMP JUMPDEST PUSH0 PUSH1 0x40 MLOAD SWAP1 POP SWAP1 JUMP JUMPDEST PUSH0 DUP1 REVERT JUMPDEST PUSH0 DUP1 REVERT JUMPDEST PUSH0 PUSH32 0xFFFFFFFF00000000000000000000000000000000000000000000000000000000 DUP3 AND SWAP1 POP SWAP2 SWAP1 POP JUMP JUMPDEST PUSH2 0x2D05 DUP2 PUSH2 0x2CD1 JUMP JUMPDEST DUP2 EQ PUSH2 0x2D0F JUMPI PUSH0 DUP1 REVERT JUMPDEST POP JUMP JUMPDEST PUSH0 DUP2 CALLDATALOAD SWAP1 POP PUSH2 0x2D20 DUP2 PUSH2 0x2CFC JUMP JUMPDEST SWAP3 SWAP2 POP POP JUMP JUMPDEST PUSH0 PUSH1 0x20 DUP3 DUP5 SUB SLT ISZERO PUSH2 0x2D3B JUMPI PUSH2 0x2D3A PUSH2 0x2CC9 JUMP JUMPDEST JUMPDEST PUSH0 PUSH2 0x2D48 DUP5 DUP3 DUP6 ADD PUSH2 0x2D12 JUMP JUMPDEST SWAP2 POP POP SWAP3 SWAP2 POP POP JUMP JUMPDEST PUSH0 DUP2 ISZERO ISZERO SWAP1 POP SWAP2 SWAP1 POP JUMP JUMPDEST PUSH2 0x2D65 DUP2 PUSH2 0x2D51 JUMP JUMPDEST DUP3 MSTORE POP POP JUMP JUMPDEST PUSH0 PUSH1 0x20 DUP3 ADD SWAP1 POP PUSH2 0x2D7E PUSH0 DUP4 ADD DUP5 PUSH2 0x2D5C JUMP JUMPDEST SWAP3 SWAP2 POP POP JUMP JUMPDEST PUSH0 DUP2 SWAP1 POP SWAP2 SWAP1 POP JUMP JUMPDEST PUSH2 0x2D96 DUP2 PUSH2 0x2D84 JUMP JUMPDEST DUP2 EQ PUSH2 0x2DA0 JUMPI PUSH0 DUP1 REVERT JUMPDEST POP JUMP JUMPDEST PUSH0 DUP2 CALLDATALOAD SWAP1 POP PUSH2 0x2DB1 DUP2 PUSH2 0x2D8D JUMP JUMPDEST SWAP3 SWAP2 POP POP JUMP JUMPDEST PUSH0 PUSH1 0x20 DUP3 DUP5 SUB SLT ISZERO PUSH2 0x2DCC JUMPI PUSH2 0x2DCB PUSH2 0x2CC9 JUMP JUMPDEST JUMPDEST PUSH0 PUSH2 0x2DD9 DUP5 DUP3 DUP6 ADD PUSH2 0x2DA3 JUMP JUMPDEST SWAP2 POP POP SWAP3 SWAP2 POP POP JUMP JUMPDEST PUSH0 PUSH20 0xFFFFFFFFFFFFFFFFFFFFFFFFFFFFFFFFFFFFFFFF DUP3 AND SWAP1 POP SWAP2 SWAP1 POP JUMP JUMPDEST PUSH0 PUSH2 0x2E0B DUP3 PUSH2 0x2DE2 JUMP JUMPDEST SWAP1 POP SWAP2 SWAP1 POP JUMP JUMPDEST PUSH2 0x2E1B DUP2 PUSH2 0x2E01 JUMP JUMPDEST DUP3 MSTORE POP POP JUMP JUMPDEST PUSH0 PUSH1 0x20 DUP3 ADD SWAP1 POP PUSH2 0x2E34 PUSH0 DUP4 ADD DUP5 PUSH2 0x2E12 JUMP JUMPDEST SWAP3 SWAP2 POP POP JUMP JUMPDEST PUSH0 DUP2 MLOAD SWAP1 POP SWAP2 SWAP1 POP JUMP JUMPDEST PUSH0 DUP3 DUP3 MSTORE PUSH1 0x20 DUP3 ADD SWAP1 POP SWAP3 SWAP2 POP POP JUMP JUMPDEST DUP3 DUP2 DUP4 MCOPY PUSH0 DUP4 DUP4 ADD MSTORE POP POP POP JUMP JUMPDEST PUSH0 PUSH1 0x1F NOT PUSH1 0x1F DUP4 ADD AND SWAP1 POP SWAP2 SWAP1 POP JUMP JUMPDEST PUSH0 PUSH2 0x2E7C DUP3 PUSH2 0x2E3A JUMP JUMPDEST PUSH2 0x2E86 DUP2 DUP6 PUSH2 0x2E44 JUMP JUMPDEST SWAP4 POP PUSH2 0x2E96 DUP2 DUP6 PUSH1 0x20 DUP7 ADD PUSH2 0x2E54 JUMP JUMPDEST PUSH2 0x2E9F DUP2 PUSH2 0x2E62 JUMP JUMPDEST DUP5 ADD SWAP2 POP POP SWAP3 SWAP2 POP POP JUMP JUMPDEST PUSH0 PUSH1 0x20 DUP3 ADD SWAP1 POP DUP2 DUP2 SUB PUSH0 DUP4 ADD MSTORE PUSH2 0x2EC2 DUP2 DUP5 PUSH2 0x2E72 JUMP JUMPDEST SWAP1 POP SWAP3 SWAP2 POP POP JUMP JUMPDEST PUSH2 0x2ED3 DUP2 PUSH2 0x2E01 JUMP JUMPDEST DUP2 EQ PUSH2 0x2EDD JUMPI PUSH0 DUP1 REVERT JUMPDEST POP JUMP JUMPDEST PUSH0 DUP2 CALLDATALOAD SWAP1 POP PUSH2 0x2EEE DUP2 PUSH2 0x2ECA JUMP JUMPDEST SWAP3 SWAP2 POP POP JUMP JUMPDEST PUSH0 DUP1 PUSH1 0x40 DUP4 DUP6 SUB SLT ISZERO PUSH2 0x2F0A JUMPI PUSH2 0x2F09 PUSH2 0x2CC9 JUMP JUMPDEST JUMPDEST PUSH0 PUSH2 0x2F17 DUP6 DUP3 DUP7 ADD PUSH2 0x2EE0 JUMP JUMPDEST SWAP3 POP POP PUSH1 0x20 PUSH2 0x2F28 DUP6 DUP3 DUP7 ADD PUSH2 0x2DA3 JUMP JUMPDEST SWAP2 POP POP SWAP3 POP SWAP3 SWAP1 POP JUMP JUMPDEST PUSH2 0x2F3B DUP2 PUSH2 0x2D84 JUMP JUMPDEST DUP3 MSTORE POP POP JUMP JUMPDEST PUSH0 PUSH1 0x20 DUP3 ADD SWAP1 POP PUSH2 0x2F54 PUSH0 DUP4 ADD DUP5 PUSH2 0x2F32 JUMP JUMPDEST SWAP3 SWAP2 POP POP JUMP JUMPDEST PUSH0 DUP1 REVERT JUMPDEST PUSH0 DUP1 REVERT JUMPDEST PUSH32 0x4E487B7100000000000000000000000000000000000000000000000000000000 PUSH0 MSTORE PUSH1 0x41 PUSH1 0x4 MSTORE PUSH1 0x24 PUSH0 REVERT JUMPDEST PUSH2 0x2F98 DUP3 PUSH2 0x2E62 JUMP JUMPDEST DUP2 ADD DUP2 DUP2 LT PUSH8 0xFFFFFFFFFFFFFFFF DUP3 GT OR ISZERO PUSH2 0x2FB7 JUMPI PUSH2 0x2FB6 PUSH2 0x2F62 JUMP JUMPDEST JUMPDEST DUP1 PUSH1 0x40 MSTORE POP POP POP JUMP JUMPDEST PUSH0 PUSH2 0x2FC9 PUSH2 0x2CC0 JUMP JUMPDEST SWAP1 POP PUSH2 0x2FD5 DUP3 DUP3 PUSH2 0x2F8F JUMP JUMPDEST SWAP2 SWAP1 POP JUMP JUMPDEST PUSH0 PUSH8 0xFFFFFFFFFFFFFFFF DUP3 GT ISZERO PUSH2 0x2FF4 JUMPI PUSH2 0x2FF3 PUSH2 0x2F62 JUMP JUMPDEST JUMPDEST PUSH2 0x2FFD DUP3 PUSH2 0x2E62 JUMP JUMPDEST SWAP1 POP PUSH1 0x20 DUP2 ADD SWAP1 POP SWAP2 SWAP1 POP JUMP JUMPDEST DUP3 DUP2 DUP4 CALLDATACOPY PUSH0 DUP4 DUP4 ADD MSTORE POP POP POP JUMP JUMPDEST PUSH0 PUSH2 0x302A PUSH2 0x3025 DUP5 PUSH2 0x2FDA JUMP JUMPDEST PUSH2 0x2FC0 JUMP JUMPDEST SWAP1 POP DUP3 DUP2 MSTORE PUSH1 0x20 DUP2 ADD DUP5 DUP5 DUP5 ADD GT ISZERO PUSH2 0x3046 JUMPI PUSH2 0x3045 PUSH2 0x2F5E JUMP JUMPDEST JUMPDEST PUSH2 0x3051 DUP5 DUP3 DUP6 PUSH2 0x300A JUMP JUMPDEST POP SWAP4 SWAP3 POP POP POP JUMP JUMPDEST PUSH0 DUP3 PUSH1 0x1F DUP4 ADD SLT PUSH2 0x306D JUMPI PUSH2 0x306C PUSH2 0x2F5A JUMP JUMPDEST JUMPDEST DUP2 CALLDATALOAD PUSH2 0x307D DUP5 DUP3 PUSH1 0x20 DUP7 ADD PUSH2 0x3018 JUMP JUMPDEST SWAP2 POP POP SWAP3 SWAP2 POP POP JUMP JUMPDEST PUSH0 DUP1 PUSH1 0x40 DUP4 DUP6 SUB SLT ISZERO PUSH2 0x309C JUMPI PUSH2 0x309B PUSH2 0x2CC9 JUMP JUMPDEST JUMPDEST PUSH0 PUSH2 0x30A9 DUP6 DUP3 DUP7 ADD PUSH2 0x2DA3 JUMP JUMPDEST SWAP3 POP POP PUSH1 0x20 DUP4 ADD CALLDATALOAD PUSH8 0xFFFFFFFFFFFFFFFF DUP2 GT ISZERO PUSH2 0x30CA JUMPI PUSH2 0x30C9 PUSH2 0x2CCD JUMP JUMPDEST JUMPDEST PUSH2 0x30D6 DUP6 DUP3 DUP7 ADD PUSH2 0x3059 JUMP JUMPDEST SWAP2 POP POP SWAP3 POP SWAP3 SWAP1 POP JUMP JUMPDEST PUSH0 DUP1 PUSH0 PUSH1 0x60 DUP5 DUP7 SUB SLT ISZERO PUSH2 0x30F7 JUMPI PUSH2 0x30F6 PUSH2 0x2CC9 JUMP JUMPDEST JUMPDEST PUSH0 PUSH2 0x3104 DUP7 DUP3 DUP8 ADD PUSH2 0x2EE0 JUMP JUMPDEST SWAP4 POP POP PUSH1 0x20 PUSH2 0x3115 DUP7 DUP3 DUP8 ADD PUSH2 0x2EE0 JUMP JUMPDEST SWAP3 POP POP PUSH1 0x40 PUSH2 0x3126 DUP7 DUP3 DUP8 ADD PUSH2 0x2DA3 JUMP JUMPDEST SWAP2 POP POP SWAP3 POP SWAP3 POP SWAP3 JUMP JUMPDEST PUSH0 PUSH1 0x20 DUP3 DUP5 SUB SLT ISZERO PUSH2 0x3145 JUMPI PUSH2 0x3144 PUSH2 0x2CC9 JUMP JUMPDEST JUMPDEST PUSH0 PUSH2 0x3152 DUP5 DUP3 DUP6 ADD PUSH2 0x2EE0 JUMP JUMPDEST SWAP2 POP POP SWAP3 SWAP2 POP POP JUMP JUMPDEST PUSH2 0x3164 DUP2 PUSH2 0x2D51 JUMP JUMPDEST DUP2 EQ PUSH2 0x316E JUMPI PUSH0 DUP1 REVERT JUMPDEST POP JUMP JUMPDEST PUSH0 DUP2 CALLDATALOAD SWAP1 POP PUSH2 0x317F DUP2 PUSH2 0x315B JUMP JUMPDEST SWAP3 SWAP2 POP POP JUMP JUMPDEST PUSH0 DUP1 PUSH1 0x40 DUP4 DUP6 SUB SLT ISZERO PUSH2 0x319B JUMPI PUSH2 0x319A PUSH2 0x2CC9 JUMP JUMPDEST JUMPDEST PUSH0 PUSH2 0x31A8 DUP6 DUP3 DUP7 ADD PUSH2 0x2EE0 JUMP JUMPDEST SWAP3 POP POP PUSH1 0x20 PUSH2 0x31B9 DUP6 DUP3 DUP7 ADD PUSH2 0x3171 JUMP JUMPDEST SWAP2 POP POP SWAP3 POP SWAP3 SWAP1 POP JUMP JUMPDEST PUSH0 PUSH8 0xFFFFFFFFFFFFFFFF DUP3 GT ISZERO PUSH2 0x31DD JUMPI PUSH2 0x31DC PUSH2 0x2F62 JUMP JUMPDEST JUMPDEST PUSH2 0x31E6 DUP3 PUSH2 0x2E62 JUMP JUMPDEST SWAP1 POP PUSH1 0x20 DUP2 ADD SWAP1 POP SWAP2 SWAP1 POP JUMP JUMPDEST PUSH0 PUSH2 0x3205 PUSH2 0x3200 DUP5 PUSH2 0x31C3 JUMP JUMPDEST PUSH2 0x2FC0 JUMP JUMPDEST SWAP1 POP DUP3 DUP2 MSTORE PUSH1 0x20 DUP2 ADD DUP5 DUP5 DUP5 ADD GT ISZERO PUSH2 0x3221 JUMPI PUSH2 0x3220 PUSH2 0x2F5E JUMP JUMPDEST JUMPDEST PUSH2 0x322C DUP5 DUP3 DUP6 PUSH2 0x300A JUMP JUMPDEST POP SWAP4 SWAP3 POP POP POP JUMP JUMPDEST PUSH0 DUP3 PUSH1 0x1F DUP4 ADD SLT PUSH2 0x3248 JUMPI PUSH2 0x3247 PUSH2 0x2F5A JUMP JUMPDEST JUMPDEST DUP2 CALLDATALOAD PUSH2 0x3258 DUP5 DUP3 PUSH1 0x20 DUP7 ADD PUSH2 0x31F3 JUMP JUMPDEST SWAP2 POP POP SWAP3 SWAP2 POP POP JUMP JUMPDEST PUSH0 DUP1 PUSH0 DUP1 PUSH1 0x80 DUP6 DUP8 SUB SLT ISZERO PUSH2 0x3279 JUMPI PUSH2 0x3278 PUSH2 0x2CC9 JUMP JUMPDEST JUMPDEST PUSH0 PUSH2 0x3286 DUP8 DUP3 DUP9 ADD PUSH2 0x2EE0 JUMP JUMPDEST SWAP5 POP POP PUSH1 0x20 PUSH2 0x3297 DUP8 DUP3 DUP9 ADD PUSH2 0x2EE0 JUMP JUMPDEST SWAP4 POP POP PUSH1 0x40 PUSH2 0x32A8 DUP8 DUP3 DUP9 ADD PUSH2 0x2DA3 JUMP JUMPDEST SWAP3 POP POP PUSH1 0x60 DUP6 ADD CALLDATALOAD PUSH8 0xFFFFFFFFFFFFFFFF DUP2 GT ISZERO PUSH2 0x32C9 JUMPI PUSH2 0x32C8 PUSH2 0x2CCD JUMP JUMPDEST JUMPDEST PUSH2 0x32D5 DUP8 DUP3 DUP9 ADD PUSH2 0x3234 JUMP JUMPDEST SWAP2 POP POP SWAP3 SWAP6 SWAP2 SWAP5 POP SWAP3 POP JUMP JUMPDEST PUSH0 DUP1 PUSH1 0x40 DUP4 DUP6 SUB SLT ISZERO PUSH2 0x32F7 JUMPI PUSH2 0x32F6 PUSH2 0x2CC9 JUMP JUMPDEST JUMPDEST PUSH0 PUSH2 0x3304 DUP6 DUP3 DUP7 ADD PUSH2 0x2DA3 JUMP JUMPDEST SWAP3 POP POP PUSH1 0x20 PUSH2 0x3315 DUP6 DUP3 DUP7 ADD PUSH2 0x2DA3 JUMP JUMPDEST SWAP2 POP POP SWAP3 POP SWAP3 SWAP1 POP JUMP JUMPDEST PUSH0 DUP1 PUSH1 0x40 DUP4 DUP6 SUB SLT ISZERO PUSH2 0x3335 JUMPI PUSH2 0x3334 PUSH2 0x2CC9 JUMP JUMPDEST JUMPDEST PUSH0 PUSH2 0x3342 DUP6 DUP3 DUP7 ADD PUSH2 0x2EE0 JUMP JUMPDEST SWAP3 POP POP PUSH1 0x20 PUSH2 0x3353 DUP6 DUP3 DUP7 ADD PUSH2 0x2EE0 JUMP JUMPDEST SWAP2 POP POP SWAP3 POP SWAP3 SWAP1 POP JUMP JUMPDEST PUSH32 0x4E487B7100000000000000000000000000000000000000000000000000000000 PUSH0 MSTORE PUSH1 0x22 PUSH1 0x4 MSTORE PUSH1 0x24 PUSH0 REVERT JUMPDEST PUSH0 PUSH1 0x2 DUP3 DIV SWAP1 POP PUSH1 0x1 DUP3 AND DUP1 PUSH2 0x33A1 JUMPI PUSH1 0x7F DUP3 AND SWAP2 POP JUMPDEST PUSH1 0x20 DUP3 LT DUP2 SUB PUSH2 0x33B4 JUMPI PUSH2 0x33B3 PUSH2 0x335D JUMP JUMPDEST JUMPDEST POP SWAP2 SWAP1 POP JUMP JUMPDEST PUSH32 0x4E6F7420746865206F776E657200000000000000000000000000000000000000 PUSH0 DUP3 ADD MSTORE POP JUMP JUMPDEST PUSH0 PUSH2 0x33EE PUSH1 0xD DUP4 PUSH2 0x2E44 JUMP JUMPDEST SWAP2 POP PUSH2 0x33F9 DUP3 PUSH2 0x33BA JUMP JUMPDEST PUSH1 0x20 DUP3 ADD SWAP1 POP SWAP2 SWAP1 POP JUMP JUMPDEST PUSH0 PUSH1 0x20 DUP3 ADD SWAP1 POP DUP2 DUP2 SUB PUSH0 DUP4 ADD MSTORE PUSH2 0x341B DUP2 PUSH2 0x33E2 JUMP JUMPDEST SWAP1 POP SWAP2 SWAP1 POP JUMP JUMPDEST PUSH0 DUP2 SWAP1 POP DUP2 PUSH0 MSTORE PUSH1 0x20 PUSH0 KECCAK256 SWAP1 POP SWAP2 SWAP1 POP JUMP JUMPDEST PUSH0 PUSH1 0x20 PUSH1 0x1F DUP4 ADD DIV SWAP1 POP SWAP2 SWAP1 POP JUMP JUMPDEST PUSH0 DUP3 DUP3 SHL SWAP1 POP SWAP3 SWAP2 POP POP JUMP JUMPDEST PUSH0 PUSH1 0x8 DUP4 MUL PUSH2 0x347E PUSH32 0xFFFFFFFFFFFFFFFFFFFFFFFFFFFFFFFFFFFFFFFFFFFFFFFFFFFFFFFFFFFFFFFF DUP3 PUSH2 0x3443 JUMP JUMPDEST PUSH2 0x3488 DUP7 DUP4 PUSH2 0x3443 JUMP JUMPDEST SWAP6 POP DUP1 NOT DUP5 AND SWAP4 POP DUP1 DUP7 AND DUP5 OR SWAP3 POP POP POP SWAP4 SWAP3 POP POP POP JUMP JUMPDEST PUSH0 DUP2 SWAP1 POP SWAP2 SWAP1 POP JUMP JUMPDEST PUSH0 PUSH2 0x34C3 PUSH2 0x34BE PUSH2 0x34B9 DUP5 PUSH2 0x2D84 JUMP JUMPDEST PUSH2 0x34A0 JUMP JUMPDEST PUSH2 0x2D84 JUMP JUMPDEST SWAP1 POP SWAP2 SWAP1 POP JUMP JUMPDEST PUSH0 DUP2 SWAP1 POP SWAP2 SWAP1 POP JUMP JUMPDEST PUSH2 0x34DC DUP4 PUSH2 0x34A9 JUMP JUMPDEST PUSH2 0x34F0 PUSH2 0x34E8 DUP3 PUSH2 0x34CA JUMP JUMPDEST DUP5 DUP5 SLOAD PUSH2 0x344F JUMP JUMPDEST DUP3 SSTORE POP POP POP POP JUMP JUMPDEST PUSH0 SWAP1 JUMP JUMPDEST PUSH2 0x3504 PUSH2 0x34F8 JUMP JUMPDEST PUSH2 0x350F DUP2 DUP5 DUP5 PUSH2 0x34D3 JUMP JUMPDEST POP POP POP JUMP JUMPDEST JUMPDEST DUP2 DUP2 LT ISZERO PUSH2 0x3532 JUMPI PUSH2 0x3527 PUSH0 DUP3 PUSH2 0x34FC JUMP JUMPDEST PUSH1 0x1 DUP2 ADD SWAP1 POP PUSH2 0x3515 JUMP JUMPDEST POP POP JUMP JUMPDEST PUSH1 0x1F DUP3 GT ISZERO PUSH2 0x3577 JUMPI PUSH2 0x3548 DUP2 PUSH2 0x3422 JUMP JUMPDEST PUSH2 0x3551 DUP5 PUSH2 0x3434 JUMP JUMPDEST DUP2 ADD PUSH1 0x20 DUP6 LT ISZERO PUSH2 0x3560 JUMPI DUP2 SWAP1 POP JUMPDEST PUSH2 0x3574 PUSH2 0x356C DUP6 PUSH2 0x3434 JUMP JUMPDEST DUP4 ADD DUP3 PUSH2 0x3514 JUMP JUMPDEST POP POP JUMPDEST POP POP POP JUMP JUMPDEST PUSH0 DUP3 DUP3 SHR SWAP1 POP SWAP3 SWAP2 POP POP JUMP JUMPDEST PUSH0 PUSH2 0x3597 PUSH0 NOT DUP5 PUSH1 0x8 MUL PUSH2 0x357C JUMP JUMPDEST NOT DUP1 DUP4 AND SWAP2 POP POP SWAP3 SWAP2 POP POP JUMP JUMPDEST PUSH0 PUSH2 0x35AF DUP4 DUP4 PUSH2 0x3588 JUMP JUMPDEST SWAP2 POP DUP3 PUSH1 0x2 MUL DUP3 OR SWAP1 POP SWAP3 SWAP2 POP POP JUMP JUMPDEST PUSH2 0x35C8 DUP3 PUSH2 0x2E3A JUMP JUMPDEST PUSH8 0xFFFFFFFFFFFFFFFF DUP2 GT ISZERO PUSH2 0x35E1 JUMPI PUSH2 0x35E0 PUSH2 0x2F62 JUMP JUMPDEST JUMPDEST PUSH2 0x35EB DUP3 SLOAD PUSH2 0x338A JUMP JUMPDEST PUSH2 0x35F6 DUP3 DUP3 DUP6 PUSH2 0x3536 JUMP JUMPDEST PUSH0 PUSH1 0x20 SWAP1 POP PUSH1 0x1F DUP4 GT PUSH1 0x1 DUP2 EQ PUSH2 0x3627 JUMPI PUSH0 DUP5 ISZERO PUSH2 0x3615 JUMPI DUP3 DUP8 ADD MLOAD SWAP1 POP JUMPDEST PUSH2 0x361F DUP6 DUP3 PUSH2 0x35A4 JUMP JUMPDEST DUP7 SSTORE POP PUSH2 0x3686 JUMP JUMPDEST PUSH1 0x1F NOT DUP5 AND PUSH2 0x3635 DUP7 PUSH2 0x3422 JUMP JUMPDEST PUSH0 JUMPDEST DUP3 DUP2 LT ISZERO PUSH2 0x365C JUMPI DUP5 DUP10 ADD MLOAD DUP3 SSTORE PUSH1 0x1 DUP3 ADD SWAP2 POP PUSH1 0x20 DUP6 ADD SWAP5 POP PUSH1 0x20 DUP2 ADD SWAP1 POP PUSH2 0x3637 JUMP JUMPDEST DUP7 DUP4 LT ISZERO PUSH2 0x3679 JUMPI DUP5 DUP10 ADD MLOAD PUSH2 0x3675 PUSH1 0x1F DUP10 AND DUP3 PUSH2 0x3588 JUMP JUMPDEST DUP4 SSTORE POP JUMPDEST PUSH1 0x1 PUSH1 0x2 DUP9 MUL ADD DUP9 SSTORE POP POP POP JUMPDEST POP POP POP POP POP POP JUMP JUMPDEST PUSH0 PUSH1 0x60 DUP3 ADD SWAP1 POP PUSH2 0x36A1 PUSH0 DUP4 ADD DUP7 PUSH2 0x2E12 JUMP JUMPDEST PUSH2 0x36AE PUSH1 0x20 DUP4 ADD DUP6 PUSH2 0x2F32 JUMP JUMPDEST PUSH2 0x36BB PUSH1 0x40 DUP4 ADD DUP5 PUSH2 0x2E12 JUMP JUMPDEST SWAP5 SWAP4 POP POP POP POP JUMP JUMPDEST PUSH0 PUSH1 0x40 DUP3 ADD SWAP1 POP PUSH2 0x36D6 PUSH0 DUP4 ADD DUP6 PUSH2 0x2E12 JUMP JUMPDEST PUSH2 0x36E3 PUSH1 0x20 DUP4 ADD DUP5 PUSH2 0x2F32 JUMP JUMPDEST SWAP4 SWAP3 POP POP POP JUMP JUMPDEST PUSH32 0x4E487B7100000000000000000000000000000000000000000000000000000000 PUSH0 MSTORE PUSH1 0x32 PUSH1 0x4 MSTORE PUSH1 0x24 PUSH0 REVERT JUMPDEST PUSH32 0x496E73756666696369656E74207061796D656E74000000000000000000000000 PUSH0 DUP3 ADD MSTORE POP JUMP JUMPDEST PUSH0 PUSH2 0x374B PUSH1 0x14 DUP4 PUSH2 0x2E44 JUMP JUMPDEST SWAP2 POP PUSH2 0x3756 DUP3 PUSH2 0x3717 JUMP JUMPDEST PUSH1 0x20 DUP3 ADD SWAP1 POP SWAP2 SWAP1 POP JUMP JUMPDEST PUSH0 PUSH1 0x20 DUP3 ADD SWAP1 POP DUP2 DUP2 SUB PUSH0 DUP4 ADD MSTORE PUSH2 0x3778 DUP2 PUSH2 0x373F JUMP JUMPDEST SWAP1 POP SWAP2 SWAP1 POP JUMP JUMPDEST PUSH32 0x4D617820737570706C7920726561636865640000000000000000000000000000 PUSH0 DUP3 ADD MSTORE POP JUMP JUMPDEST PUSH0 PUSH2 0x37B3 PUSH1 0x12 DUP4 PUSH2 0x2E44 JUMP JUMPDEST SWAP2 POP PUSH2 0x37BE DUP3 PUSH2 0x377F JUMP JUMPDEST PUSH1 0x20 DUP3 ADD SWAP1 POP SWAP2 SWAP1 POP JUMP JUMPDEST PUSH0 PUSH1 0x20 DUP3 ADD SWAP1 POP DUP2 DUP2 SUB PUSH0 DUP4 ADD MSTORE PUSH2 0x37E0 DUP2 PUSH2 0x37A7 JUMP JUMPDEST SWAP1 POP SWAP2 SWAP1 POP JUMP JUMPDEST PUSH32 0x4E487B7100000000000000000000000000000000000000000000000000000000 PUSH0 MSTORE PUSH1 0x11 PUSH1 0x4 MSTORE PUSH1 0x24 PUSH0 REVERT JUMPDEST PUSH0 PUSH2 0x381E DUP3 PUSH2 0x2D84 JUMP JUMPDEST SWAP2 POP PUSH32 0xFFFFFFFFFFFFFFFFFFFFFFFFFFFFFFFFFFFFFFFFFFFFFFFFFFFFFFFFFFFFFFFF DUP3 SUB PUSH2 0x3850 JUMPI PUSH2 0x384F PUSH2 0x37E7 JUMP JUMPDEST JUMPDEST PUSH1 0x1 DUP3 ADD SWAP1 POP SWAP2 SWAP1 POP JUMP JUMPDEST PUSH32 0x506978656C206E6F7420666F722073616C650000000000000000000000000000 PUSH0 DUP3 ADD MSTORE POP JUMP JUMPDEST PUSH0 PUSH2 0x388F PUSH1 0x12 DUP4 PUSH2 0x2E44 JUMP JUMPDEST SWAP2 POP PUSH2 0x389A DUP3 PUSH2 0x385B JUMP JUMPDEST PUSH1 0x20 DUP3 ADD SWAP1 POP SWAP2 SWAP1 POP JUMP JUMPDEST PUSH0 PUSH1 0x20 DUP3 ADD SWAP1 POP DUP2 DUP2 SUB PUSH0 DUP4 ADD MSTORE PUSH2 0x38BC DUP2 PUSH2 0x3883 JUMP JUMPDEST SWAP1 POP SWAP2 SWAP1 POP JUMP JUMPDEST PUSH0 PUSH1 0x60 DUP3 ADD SWAP1 POP PUSH2 0x38D6 PUSH0 DUP4 ADD DUP7 PUSH2 0x2E12 JUMP JUMPDEST PUSH2 0x38E3 PUSH1 0x20 DUP4 ADD DUP6 PUSH2 0x2E12 JUMP JUMPDEST PUSH2 0x38F0 PUSH1 0x40 DUP4 ADD DUP5 PUSH2 0x2F32 JUMP JUMPDEST SWAP5 SWAP4 POP POP POP POP JUMP JUMPDEST PUSH0 DUP2 MLOAD SWAP1 POP SWAP2 SWAP1 POP JUMP JUMPDEST PUSH0 DUP3 DUP3 MSTORE PUSH1 0x20 DUP3 ADD SWAP1 POP SWAP3 SWAP2 POP POP JUMP JUMPDEST PUSH0 PUSH2 0x391C DUP3 PUSH2 0x38F8 JUMP JUMPDEST PUSH2 0x3926 DUP2 DUP6 PUSH2 0x3902 JUMP JUMPDEST SWAP4 POP PUSH2 0x3936 DUP2 DUP6 PUSH1 0x20 DUP7 ADD PUSH2 0x2E54 JUMP JUMPDEST PUSH2 0x393F DUP2 PUSH2 0x2E62 JUMP JUMPDEST DUP5 ADD SWAP2 POP POP SWAP3 SWAP2 POP POP JUMP JUMPDEST PUSH0 PUSH1 0x80 DUP3 ADD SWAP1 POP PUSH2 0x395D PUSH0 DUP4 ADD DUP8 PUSH2 0x2E12 JUMP JUMPDEST PUSH2 0x396A PUSH1 0x20 DUP4 ADD DUP7 PUSH2 0x2E12 JUMP JUMPDEST PUSH2 0x3977 PUSH1 0x40 DUP4 ADD DUP6 PUSH2 0x2F32 JUMP JUMPDEST DUP2 DUP2 SUB PUSH1 0x60 DUP4 ADD MSTORE PUSH2 0x3989 DUP2 DUP5 PUSH2 0x3912 JUMP JUMPDEST SWAP1 POP SWAP6 SWAP5 POP POP POP POP POP JUMP JUMPDEST PUSH0 DUP2 MLOAD SWAP1 POP PUSH2 0x39A2 DUP2 PUSH2 0x2CFC JUMP JUMPDEST SWAP3 SWAP2 POP POP JUMP JUMPDEST PUSH0 PUSH1 0x20 DUP3 DUP5 SUB SLT ISZERO PUSH2 0x39BD JUMPI PUSH2 0x39BC PUSH2 0x2CC9 JUMP JUMPDEST JUMPDEST PUSH0 PUSH2 0x39CA DUP5 DUP3 DUP6 ADD PUSH2 0x3994 JUMP JUMPDEST SWAP2 POP POP SWAP3 SWAP2 POP POP JUMP JUMPDEST PUSH0 DUP2 SWAP1 POP SWAP3 SWAP2 POP POP JUMP JUMPDEST PUSH0 PUSH2 0x39E7 DUP3 PUSH2 0x2E3A JUMP JUMPDEST PUSH2 0x39F1 DUP2 DUP6 PUSH2 0x39D3 JUMP JUMPDEST SWAP4 POP PUSH2 0x3A01 DUP2 DUP6 PUSH1 0x20 DUP7 ADD PUSH2 0x2E54 JUMP JUMPDEST DUP1 DUP5 ADD SWAP2 POP POP SWAP3 SWAP2 POP POP JUMP JUMPDEST PUSH0 PUSH2 0x3A18 DUP3 DUP6 PUSH2 0x39DD JUMP JUMPDEST SWAP2 POP PUSH2 0x3A24 DUP3 DUP5 PUSH2 0x39DD JUMP JUMPDEST SWAP2 POP DUP2 SWAP1 POP SWAP4 SWAP3 POP POP POP JUMP JUMPDEST PUSH32 0x4E487B7100000000000000000000000000000000000000000000000000000000 PUSH0 MSTORE PUSH1 0x12 PUSH1 0x4 MSTORE PUSH1 0x24 PUSH0 REVERT JUMPDEST PUSH0 PUSH2 0x3A67 DUP3 PUSH2 0x2D84 JUMP JUMPDEST SWAP2 POP PUSH2 0x3A72 DUP4 PUSH2 0x2D84 JUMP JUMPDEST SWAP3 POP DUP3 DUP3 SUB SWAP1 POP DUP2 DUP2 GT ISZERO PUSH2 0x3A8A JUMPI PUSH2 0x3A89 PUSH2 0x37E7 JUMP JUMPDEST JUMPDEST SWAP3 SWAP2 POP POP JUMP JUMPDEST PUSH32 0x4E487B7100000000000000000000000000000000000000000000000000000000 PUSH0 MSTORE PUSH1 0x31 PUSH1 0x4 MSTORE PUSH1 0x24 PUSH0 REVERT INVALID LOG2 PUSH5 0x6970667358 0x22 SLT KECCAK256 0xBE SMOD 0x1E PREVRANDAO CREATE DUP4 PUSH21 0x62BA1DC1E5E88F8907977D84B1A7512C201915CEC9 0xC5 0xC1 LOG1 PUSH13 0x64736F6C634300081A00330000 "
		},
		"gasEstimates": {
			"creation": {
				"codeDepositCost": "3018200",
				"executionCost": "infinite",
				"totalCost": "infinite"
			},
			"external": {
				"MAX_SUPPLY()": "393",
				"PRICE()": "414",
				"approve(address,uint256)": "infinite",
				"balanceOf(address)": "infinite",
				"burn(uint256)": "infinite",
				"buyPixel(uint256)": "infinite",
				"getApproved(uint256)": "infinite",
				"isApprovedForAll(address,address)": "infinite",
				"isPixelForSale(uint256)": "2875",
				"mintPixel()": "infinite",
				"name()": "infinite",
				"owner()": "2677",
				"ownerOf(uint256)": "infinite",
				"pause()": "infinite",
				"paused()": "2584",
				"pixelContent(uint256)": "infinite",
				"pixelOwners(uint256)": "2896",
				"pixelPrices(uint256)": "infinite",
				"renounceOwnership()": "infinite",
				"safeTransferFrom(address,address,uint256)": "infinite",
				"safeTransferFrom(address,address,uint256,bytes)": "infinite",
				"setApprovalForAll(address,bool)": "infinite",
				"setPixelForSale(uint256,uint256)": "infinite",
				"supportsInterface(bytes4)": "1034",
				"symbol()": "infinite",
				"tokenByIndex(uint256)": "infinite",
				"tokenOfOwnerByIndex(address,uint256)": "infinite",
				"tokenURI(uint256)": "infinite",
				"totalSupply()": "2508",
				"transferFrom(address,address,uint256)": "infinite",
				"transferOwnership(address)": "infinite",
				"unpause()": "infinite",
				"updatePixelContent(uint256,string)": "infinite",
				"withdrawBalance()": "infinite"
			},
			"internal": {
				"_baseURI()": "infinite",
				"_increaseBalance(address,uint128)": "infinite",
				"_update(address,uint256,address)": "infinite"
			}
		},
		"methodIdentifiers": {
			"MAX_SUPPLY()": "32cb6b0c",
			"PRICE()": "8d859f3e",
			"approve(address,uint256)": "095ea7b3",
			"balanceOf(address)": "70a08231",
			"burn(uint256)": "42966c68",
			"buyPixel(uint256)": "e75fa06e",
			"getApproved(uint256)": "081812fc",
			"isApprovedForAll(address,address)": "e985e9c5",
			"isPixelForSale(uint256)": "39bd6fa5",
			"mintPixel()": "6018184d",
			"name()": "06fdde03",
			"owner()": "8da5cb5b",
			"ownerOf(uint256)": "6352211e",
			"pause()": "8456cb59",
			"paused()": "5c975abb",
			"pixelContent(uint256)": "aa3bcccb",
			"pixelOwners(uint256)": "0671131e",
			"pixelPrices(uint256)": "8c373ef4",
			"renounceOwnership()": "715018a6",
			"safeTransferFrom(address,address,uint256)": "42842e0e",
			"safeTransferFrom(address,address,uint256,bytes)": "b88d4fde",
			"setApprovalForAll(address,bool)": "a22cb465",
			"setPixelForSale(uint256,uint256)": "bffc44dd",
			"supportsInterface(bytes4)": "01ffc9a7",
			"symbol()": "95d89b41",
			"tokenByIndex(uint256)": "4f6ccce7",
			"tokenOfOwnerByIndex(address,uint256)": "2f745c59",
			"tokenURI(uint256)": "c87b56dd",
			"totalSupply()": "18160ddd",
			"transferFrom(address,address,uint256)": "23b872dd",
			"transferOwnership(address)": "f2fde38b",
			"unpause()": "3f4ba83a",
			"updatePixelContent(uint256,string)": "19385fb3",
			"withdrawBalance()": "5fd8c710"
		}
	},
	"abi": [
		{
			"inputs": [
				{
					"internalType": "address",
					"name": "initialOwner",
					"type": "address"
				}
			],
			"stateMutability": "nonpayable",
			"type": "constructor"
		},
		{
			"inputs": [],
			"name": "ERC721EnumerableForbiddenBatchMint",
			"type": "error"
		},
		{
			"inputs": [
				{
					"internalType": "address",
					"name": "sender",
					"type": "address"
				},
				{
					"internalType": "uint256",
					"name": "tokenId",
					"type": "uint256"
				},
				{
					"internalType": "address",
					"name": "owner",
					"type": "address"
				}
			],
			"name": "ERC721IncorrectOwner",
			"type": "error"
		},
		{
			"inputs": [
				{
					"internalType": "address",
					"name": "operator",
					"type": "address"
				},
				{
					"internalType": "uint256",
					"name": "tokenId",
					"type": "uint256"
				}
			],
			"name": "ERC721InsufficientApproval",
			"type": "error"
		},
		{
			"inputs": [
				{
					"internalType": "address",
					"name": "approver",
					"type": "address"
				}
			],
			"name": "ERC721InvalidApprover",
			"type": "error"
		},
		{
			"inputs": [
				{
					"internalType": "address",
					"name": "operator",
					"type": "address"
				}
			],
			"name": "ERC721InvalidOperator",
			"type": "error"
		},
		{
			"inputs": [
				{
					"internalType": "address",
					"name": "owner",
					"type": "address"
				}
			],
			"name": "ERC721InvalidOwner",
			"type": "error"
		},
		{
			"inputs": [
				{
					"internalType": "address",
					"name": "receiver",
					"type": "address"
				}
			],
			"name": "ERC721InvalidReceiver",
			"type": "error"
		},
		{
			"inputs": [
				{
					"internalType": "address",
					"name": "sender",
					"type": "address"
				}
			],
			"name": "ERC721InvalidSender",
			"type": "error"
		},
		{
			"inputs": [
				{
					"internalType": "uint256",
					"name": "tokenId",
					"type": "uint256"
				}
			],
			"name": "ERC721NonexistentToken",
			"type": "error"
		},
		{
			"inputs": [
				{
					"internalType": "address",
					"name": "owner",
					"type": "address"
				},
				{
					"internalType": "uint256",
					"name": "index",
					"type": "uint256"
				}
			],
			"name": "ERC721OutOfBoundsIndex",
			"type": "error"
		},
		{
			"inputs": [],
			"name": "EnforcedPause",
			"type": "error"
		},
		{
			"inputs": [],
			"name": "ExpectedPause",
			"type": "error"
		},
		{
			"inputs": [
				{
					"internalType": "address",
					"name": "owner",
					"type": "address"
				}
			],
			"name": "OwnableInvalidOwner",
			"type": "error"
		},
		{
			"inputs": [
				{
					"internalType": "address",
					"name": "account",
					"type": "address"
				}
			],
			"name": "OwnableUnauthorizedAccount",
			"type": "error"
		},
		{
			"anonymous": false,
			"inputs": [
				{
					"indexed": true,
					"internalType": "address",
					"name": "owner",
					"type": "address"
				},
				{
					"indexed": true,
					"internalType": "address",
					"name": "approved",
					"type": "address"
				},
				{
					"indexed": true,
					"internalType": "uint256",
					"name": "tokenId",
					"type": "uint256"
				}
			],
			"name": "Approval",
			"type": "event"
		},
		{
			"anonymous": false,
			"inputs": [
				{
					"indexed": true,
					"internalType": "address",
					"name": "owner",
					"type": "address"
				},
				{
					"indexed": true,
					"internalType": "address",
					"name": "operator",
					"type": "address"
				},
				{
					"indexed": false,
					"internalType": "bool",
					"name": "approved",
					"type": "bool"
				}
			],
			"name": "ApprovalForAll",
			"type": "event"
		},
		{
			"anonymous": false,
			"inputs": [
				{
					"indexed": false,
					"internalType": "uint256",
					"name": "_fromTokenId",
					"type": "uint256"
				},
				{
					"indexed": false,
					"internalType": "uint256",
					"name": "_toTokenId",
					"type": "uint256"
				}
			],
			"name": "BatchMetadataUpdate",
			"type": "event"
		},
		{
			"anonymous": false,
			"inputs": [
				{
					"indexed": false,
					"internalType": "uint256",
					"name": "_tokenId",
					"type": "uint256"
				}
			],
			"name": "MetadataUpdate",
			"type": "event"
		},
		{
			"anonymous": false,
			"inputs": [
				{
					"indexed": true,
					"internalType": "address",
					"name": "previousOwner",
					"type": "address"
				},
				{
					"indexed": true,
					"internalType": "address",
					"name": "newOwner",
					"type": "address"
				}
			],
			"name": "OwnershipTransferred",
			"type": "event"
		},
		{
			"anonymous": false,
			"inputs": [
				{
					"indexed": false,
					"internalType": "address",
					"name": "account",
					"type": "address"
				}
			],
			"name": "Paused",
			"type": "event"
		},
		{
			"anonymous": false,
			"inputs": [
				{
					"indexed": true,
					"internalType": "uint256",
					"name": "tokenId",
					"type": "uint256"
				},
				{
					"indexed": false,
					"internalType": "string",
					"name": "newContent",
					"type": "string"
				}
			],
			"name": "PixelContentUpdated",
			"type": "event"
		},
		{
			"anonymous": false,
			"inputs": [
				{
					"indexed": true,
					"internalType": "uint256",
					"name": "tokenId",
					"type": "uint256"
				},
				{
					"indexed": false,
					"internalType": "uint256",
					"name": "price",
					"type": "uint256"
				}
			],
			"name": "PixelForSale",
			"type": "event"
		},
		{
			"anonymous": false,
			"inputs": [
				{
					"indexed": true,
					"internalType": "uint256",
					"name": "tokenId",
					"type": "uint256"
				},
				{
					"indexed": false,
					"internalType": "address",
					"name": "from",
					"type": "address"
				},
				{
					"indexed": false,
					"internalType": "address",
					"name": "to",
					"type": "address"
				},
				{
					"indexed": false,
					"internalType": "uint256",
					"name": "price",
					"type": "uint256"
				}
			],
			"name": "PixelSold",
			"type": "event"
		},
		{
			"anonymous": false,
			"inputs": [
				{
					"indexed": true,
					"internalType": "address",
					"name": "from",
					"type": "address"
				},
				{
					"indexed": true,
					"internalType": "address",
					"name": "to",
					"type": "address"
				},
				{
					"indexed": true,
					"internalType": "uint256",
					"name": "tokenId",
					"type": "uint256"
				}
			],
			"name": "Transfer",
			"type": "event"
		},
		{
			"anonymous": false,
			"inputs": [
				{
					"indexed": false,
					"internalType": "address",
					"name": "account",
					"type": "address"
				}
			],
			"name": "Unpaused",
			"type": "event"
		},
		{
			"inputs": [],
			"name": "MAX_SUPPLY",
			"outputs": [
				{
					"internalType": "uint256",
					"name": "",
					"type": "uint256"
				}
			],
			"stateMutability": "view",
			"type": "function"
		},
		{
			"inputs": [],
			"name": "PRICE",
			"outputs": [
				{
					"internalType": "uint256",
					"name": "",
					"type": "uint256"
				}
			],
			"stateMutability": "view",
			"type": "function"
		},
		{
			"inputs": [
				{
					"internalType": "address",
					"name": "to",
					"type": "address"
				},
				{
					"internalType": "uint256",
					"name": "tokenId",
					"type": "uint256"
				}
			],
			"name": "approve",
			"outputs": [],
			"stateMutability": "nonpayable",
			"type": "function"
		},
		{
			"inputs": [
				{
					"internalType": "address",
					"name": "owner",
					"type": "address"
				}
			],
			"name": "balanceOf",
			"outputs": [
				{
					"internalType": "uint256",
					"name": "",
					"type": "uint256"
				}
			],
			"stateMutability": "view",
			"type": "function"
		},
		{
			"inputs": [
				{
					"internalType": "uint256",
					"name": "tokenId",
					"type": "uint256"
				}
			],
			"name": "burn",
			"outputs": [],
			"stateMutability": "nonpayable",
			"type": "function"
		},
		{
			"inputs": [
				{
					"internalType": "uint256",
					"name": "tokenId",
					"type": "uint256"
				}
			],
			"name": "buyPixel",
			"outputs": [],
			"stateMutability": "payable",
			"type": "function"
		},
		{
			"inputs": [
				{
					"internalType": "uint256",
					"name": "tokenId",
					"type": "uint256"
				}
			],
			"name": "getApproved",
			"outputs": [
				{
					"internalType": "address",
					"name": "",
					"type": "address"
				}
			],
			"stateMutability": "view",
			"type": "function"
		},
		{
			"inputs": [
				{
					"internalType": "address",
					"name": "owner",
					"type": "address"
				},
				{
					"internalType": "address",
					"name": "operator",
					"type": "address"
				}
			],
			"name": "isApprovedForAll",
			"outputs": [
				{
					"internalType": "bool",
					"name": "",
					"type": "bool"
				}
			],
			"stateMutability": "view",
			"type": "function"
		},
		{
			"inputs": [
				{
					"internalType": "uint256",
					"name": "",
					"type": "uint256"
				}
			],
			"name": "isPixelForSale",
			"outputs": [
				{
					"internalType": "bool",
					"name": "",
					"type": "bool"
				}
			],
			"stateMutability": "view",
			"type": "function"
		},
		{
			"inputs": [],
			"name": "mintPixel",
			"outputs": [],
			"stateMutability": "payable",
			"type": "function"
		},
		{
			"inputs": [],
			"name": "name",
			"outputs": [
				{
					"internalType": "string",
					"name": "",
					"type": "string"
				}
			],
			"stateMutability": "view",
			"type": "function"
		},
		{
			"inputs": [],
			"name": "owner",
			"outputs": [
				{
					"internalType": "address",
					"name": "",
					"type": "address"
				}
			],
			"stateMutability": "view",
			"type": "function"
		},
		{
			"inputs": [
				{
					"internalType": "uint256",
					"name": "tokenId",
					"type": "uint256"
				}
			],
			"name": "ownerOf",
			"outputs": [
				{
					"internalType": "address",
					"name": "",
					"type": "address"
				}
			],
			"stateMutability": "view",
			"type": "function"
		},
		{
			"inputs": [],
			"name": "pause",
			"outputs": [],
			"stateMutability": "nonpayable",
			"type": "function"
		},
		{
			"inputs": [],
			"name": "paused",
			"outputs": [
				{
					"internalType": "bool",
					"name": "",
					"type": "bool"
				}
			],
			"stateMutability": "view",
			"type": "function"
		},
		{
			"inputs": [
				{
					"internalType": "uint256",
					"name": "",
					"type": "uint256"
				}
			],
			"name": "pixelContent",
			"outputs": [
				{
					"internalType": "string",
					"name": "",
					"type": "string"
				}
			],
			"stateMutability": "view",
			"type": "function"
		},
		{
			"inputs": [
				{
					"internalType": "uint256",
					"name": "",
					"type": "uint256"
				}
			],
			"name": "pixelOwners",
			"outputs": [
				{
					"internalType": "address",
					"name": "",
					"type": "address"
				}
			],
			"stateMutability": "view",
			"type": "function"
		},
		{
			"inputs": [
				{
					"internalType": "uint256",
					"name": "",
					"type": "uint256"
				}
			],
			"name": "pixelPrices",
			"outputs": [
				{
					"internalType": "uint256",
					"name": "",
					"type": "uint256"
				}
			],
			"stateMutability": "view",
			"type": "function"
		},
		{
			"inputs": [],
			"name": "renounceOwnership",
			"outputs": [],
			"stateMutability": "nonpayable",
			"type": "function"
		},
		{
			"inputs": [
				{
					"internalType": "address",
					"name": "from",
					"type": "address"
				},
				{
					"internalType": "address",
					"name": "to",
					"type": "address"
				},
				{
					"internalType": "uint256",
					"name": "tokenId",
					"type": "uint256"
				}
			],
			"name": "safeTransferFrom",
			"outputs": [],
			"stateMutability": "nonpayable",
			"type": "function"
		},
		{
			"inputs": [
				{
					"internalType": "address",
					"name": "from",
					"type": "address"
				},
				{
					"internalType": "address",
					"name": "to",
					"type": "address"
				},
				{
					"internalType": "uint256",
					"name": "tokenId",
					"type": "uint256"
				},
				{
					"internalType": "bytes",
					"name": "data",
					"type": "bytes"
				}
			],
			"name": "safeTransferFrom",
			"outputs": [],
			"stateMutability": "nonpayable",
			"type": "function"
		},
		{
			"inputs": [
				{
					"internalType": "address",
					"name": "operator",
					"type": "address"
				},
				{
					"internalType": "bool",
					"name": "approved",
					"type": "bool"
				}
			],
			"name": "setApprovalForAll",
			"outputs": [],
			"stateMutability": "nonpayable",
			"type": "function"
		},
		{
			"inputs": [
				{
					"internalType": "uint256",
					"name": "tokenId",
					"type": "uint256"
				},
				{
					"internalType": "uint256",
					"name": "price",
					"type": "uint256"
				}
			],
			"name": "setPixelForSale",
			"outputs": [],
			"stateMutability": "nonpayable",
			"type": "function"
		},
		{
			"inputs": [
				{
					"internalType": "bytes4",
					"name": "interfaceId",
					"type": "bytes4"
				}
			],
			"name": "supportsInterface",
			"outputs": [
				{
					"internalType": "bool",
					"name": "",
					"type": "bool"
				}
			],
			"stateMutability": "view",
			"type": "function"
		},
		{
			"inputs": [],
			"name": "symbol",
			"outputs": [
				{
					"internalType": "string",
					"name": "",
					"type": "string"
				}
			],
			"stateMutability": "view",
			"type": "function"
		},
		{
			"inputs": [
				{
					"internalType": "uint256",
					"name": "index",
					"type": "uint256"
				}
			],
			"name": "tokenByIndex",
			"outputs": [
				{
					"internalType": "uint256",
					"name": "",
					"type": "uint256"
				}
			],
			"stateMutability": "view",
			"type": "function"
		},
		{
			"inputs": [
				{
					"internalType": "address",
					"name": "owner",
					"type": "address"
				},
				{
					"internalType": "uint256",
					"name": "index",
					"type": "uint256"
				}
			],
			"name": "tokenOfOwnerByIndex",
			"outputs": [
				{
					"internalType": "uint256",
					"name": "",
					"type": "uint256"
				}
			],
			"stateMutability": "view",
			"type": "function"
		},
		{
			"inputs": [
				{
					"internalType": "uint256",
					"name": "tokenId",
					"type": "uint256"
				}
			],
			"name": "tokenURI",
			"outputs": [
				{
					"internalType": "string",
					"name": "",
					"type": "string"
				}
			],
			"stateMutability": "view",
			"type": "function"
		},
		{
			"inputs": [],
			"name": "totalSupply",
			"outputs": [
				{
					"internalType": "uint256",
					"name": "",
					"type": "uint256"
				}
			],
			"stateMutability": "view",
			"type": "function"
		},
		{
			"inputs": [
				{
					"internalType": "address",
					"name": "from",
					"type": "address"
				},
				{
					"internalType": "address",
					"name": "to",
					"type": "address"
				},
				{
					"internalType": "uint256",
					"name": "tokenId",
					"type": "uint256"
				}
			],
			"name": "transferFrom",
			"outputs": [],
			"stateMutability": "nonpayable",
			"type": "function"
		},
		{
			"inputs": [
				{
					"internalType": "address",
					"name": "newOwner",
					"type": "address"
				}
			],
			"name": "transferOwnership",
			"outputs": [],
			"stateMutability": "nonpayable",
			"type": "function"
		},
		{
			"inputs": [],
			"name": "unpause",
			"outputs": [],
			"stateMutability": "nonpayable",
			"type": "function"
		},
		{
			"inputs": [
				{
					"internalType": "uint256",
					"name": "tokenId",
					"type": "uint256"
				},
				{
					"internalType": "string",
					"name": "newContent",
					"type": "string"
				}
			],
			"name": "updatePixelContent",
			"outputs": [],
			"stateMutability": "nonpayable",
			"type": "function"
		},
		{
			"inputs": [],
			"name": "withdrawBalance",
			"outputs": [],
			"stateMutability": "nonpayable",
			"type": "function"
		}
	]
}